:100000000C9463000C943E0F0C946B0F0C948B00BB
:100010000C948B000C948B000C948B000C948B0034
:100020000C948B000C948B000C948B000C948B0024
:100030000C948B000C948B000C948B000C948B0014
:100040000C943B050C948B000C9495080C94E308DD
:100050000C948B000C948B000C948B000C948B00F4
:100060000C948B000C948B000000000024002700EF
:100070002A0000000000250028002B0000000000DE
:1000800023002600290004040404040404040202DA
:100090000202020203030303030301020408102007
:1000A0004080010204081020010204081020000012
:1000B0000007000201000003040600000000000029
:1000C00000002E034F0A11241FBECFEFD8E0DEBF81
:1000D000CDBF12E0A0E0B1E0E8E4F0E202C005909C
:1000E0000D92AC30B107D9F713E0ACE0B2E001C03B
:1000F0001D92A134B107E1F710E0C6ECD0E004C0D6
:100100002297FE010E941E10C23CD107C9F70E942F
:100110000B070C9422100C940000AEE0B0E0E3E971
:10012000F0E00C94F30F0D891E8986E08C831A830E
:1001300009838FEF9FE79E838D839E01275E3F4F4C
:10014000CE0101966F89788DA9010E94B1002F819F
:100150003885020F131FF80110822E96E4E00C94EC
:100160000F10ABE0B0E0E7EBF0E00C94E50F3C01E2
:100170002B015A01FC0117821682838181FD03C085
:100180006FEF7FEFC6C19AE0892E1E010894211CF3
:10019000311CF3012381F20123FD859123FF81911D
:1001A0002F01882309F4B2C1853239F423FD8591EA
:1001B00023FF81912F01853229F490E0B3010E9441
:1001C000A402E7CF982FFF24EE249924FFE1FF1526
:1001D000D0F09B3269F09C3228F4903259F093327F
:1001E00091F40EC09D3249F0903369F441E024C08F
:1001F00052E0F52A84E0F82A28C098E0F92A25C0C0
:10020000E0E1FE2A22C0F7FC29C0892F80538A3002
:1002100070F4F6FE05C0989C902C1124980E15C021
:10022000E89CE02C1124E80EF0E2FF2A0EC09E327A
:1002300029F4F6FC6BC140E4F42A07C09C3619F49B
:1002400050E8F52A02C0983649F4F20123FD959151
:1002500023FF91912F01992309F0B8CF892F85545D
:10026000833018F08052833038F444E050E0A40E1C
:10027000B51E5FE359830FC0933631F0933779F0A1
:10028000933509F056C020C0F5018081898342E092
:1002900050E0A40EB51E610101E010E012C0F501AE
:1002A000C080D180F6FC03C06FEF7FEF02C0692DE4
:1002B00070E042E050E0A40EB51EC6010E94990213
:1002C0008C015FE7F52214C0F501C080D180F6FCF7
:1002D00003C06FEF7FEF02C0692D70E042E050E095
:1002E000A40EB51EC6010E948E028C0150E8F52AAC
:1002F000F3FE07C01AC080E290E0B3010E94A4029E
:10030000EA948E2D90E008171907A8F30EC0F601A5
:10031000F7FC8591F7FE81916F0190E0B3010E9497
:10032000A402E110EA94015010400115110579F77B
:10033000EAC0943611F0993669F5F7FE08C0F50168
:10034000208131814281538184E090E00AC0F5012F
:10035000808191819C01442737FD4095542F82E094
:1003600090E0A80EB91E9FE6F92257FF09C05095EC
:100370004095309521953F4F4F4F5F4FE0E8FE2A63
:10038000CA01B901A1012AE030E00E94D002D82EB2
:10039000D21840C0953729F41F2D1F7E2AE030E087
:1003A0001DC01F2D197F9F3661F0903720F49835BE
:1003B00009F0ACC00FC0903739F0983709F0A6C0EB
:1003C00004C028E030E00AC0106114FD146020E190
:1003D00030E004C014FD166020E132E017FF08C0D1
:1003E000F501608171818281938144E050E008C011
:1003F000F50180819181BC0180E090E042E050E015
:10040000A40EB51EA1010E94D002D82ED2188FE7EB
:10041000F82EF122F6FE0BC05EEFF522D91438F467
:10042000F4FE07C0F2FC05C08FEEF82202C01D2DBD
:1004300001C0192DF4FE0DC0FE01ED0DF11D8081EE
:10044000803319F499EEF92208C01F5FF2FE05C04F
:1004500003C08F2D867809F01F5F0F2DF3FC14C0A9
:10046000F0FE0FC01E1510F09D2C0BC09D2C9E0C95
:10047000911A1E2D06C080E290E0B3010E94A402F2
:100480001F5F1E15C0F304C01E1510F4E11A01C051
:10049000EE2404FF0FC080E390E0B3010E94A402A9
:1004A00002FF1DC001FD03C088E790E00EC088E593
:1004B00090E00BC0802F867891F001FF02C08BE2A4
:1004C00001C080E2F7FC8DE290E0B3010E94A4023B
:1004D00006C080E390E0B3010E94A4029A94D9146C
:1004E000C0F3DA94F101ED0DF11D808190E0B301CC
:1004F0000E94A402DD20A9F706C080E290E0B301CB
:100500000E94A402EA94EE20C1F743CEF301668173
:100510007781CB012B96E2E10C940110FC01059050
:10052000615070400110D8F7809590958E0F9F1FF5
:100530000895FC016150704001900110D8F780953A
:1005400090958E0F9F1F08950F931F93CF93DF9366
:100550008C01EB018B8181FF1BC082FF0DC02E81BE
:100560003F818C819D812817390764F4E881F981E6
:100570000193F983E88306C0E885F985802F099502
:10058000892B31F48E819F8101969F838E8302C0D7
:100590000FEF1FEFC801DF91CF911F910F910895C9
:1005A000FA01AA27283051F1203181F1E8946F93A4
:1005B0006E7F6E5F7F4F8F4F9F4FAF4FB1E03ED04A
:1005C000B4E03CD0670F781F891F9A1FA11D680FE8
:1005D000791F8A1F911DA11D6A0F711D811D911D1B
:1005E000A11D20D009F468943F912AE0269F112490
:1005F0003019305D3193DEF6CF010895462F4770F4
:10060000405D4193B3E00FD0C9F7F6CF462F4F704E
:10061000405D4A3318F0495D31FD4052419302D0AC
:10062000A9F7EACFB4E0A695979587957795679552
:10063000BA95C9F700976105710508959B01AC0152
:100640000A2E06945795479537952795BA95C9F779
:10065000620F731F841F951FA01D089589E092E00B
:1006600090930D0280930C028AE080930E0282E048
:1006700080930F0281E080933203109211028FE188
:10068000809312021092130284E192E068E040E34A
:100690005FEE0E94A50A0895DF92EF92FF920F93FA
:1006A0001F93D82E7B0161E00E9425068D2D61E00D
:1006B0000E9464060027F7FC0095102FC801B701BF
:1006C0000E9491058D2D60E00E9464061F910F919C
:1006D000FF90EF90DF900895EF920F938CE092E0FF
:1006E0000E943E0C882309F458C183ED92E06BE52B
:1006F0000E9444076091340383ED92E04AE050E0A9
:100700000E94FB0783ED92E060E071E00E947E08AA
:1007100083ED92E063E071E00E947E088CE092E05D
:1007200060E00E946F0BBC0183ED92E04AE050E074
:100730000E946B0883ED92E06EE071E00E947E08FB
:10074000809117028823A1F083ED92E060E171E0CF
:100750000E947E086091350383ED92E04AE050E00C
:100760000E94FB0783ED92E060E071E00E947E084A
:1007700080913303853239F083ED92E065E171E0D9
:100780000E947E08B1C0A8E1B2E0E5EFF2E085E2A8
:1007900001900D928150E1F783ED92E06CE471E0FD
:1007A0000E947E086091340383ED92E04AE050E0BD
:1007B0000E94FB0783ED92E060E571E00E947E08F5
:1007C0006091350383ED92E04AE050E00E940D080D
:1007D00083ED92E064E571E00E947E084091190289
:1007E00050911A0260911B0270911C0283ED92E0FD
:1007F0002AE030E00E94EC0783ED92E06CE571E0C6
:100800000E947E0883ED92E0609118024AE050E079
:100810000E94FB0783ED92E066E671E00E947E088D
:100820006091330383ED92E04AE050E00E940D08AE
:1008300083ED92E06DE671E00E94810880911D02D7
:1008400090911E02A0911F02B091200280933D0260
:1008500090933E02A0933F02B093400283ED92E05A
:1008600060E871E00E947E0883ED92E060913D02B5
:100870004AE050E00E94FB0783ED92E064E871E0FB
:100880000E947E0883ED92E060913E024AE050E0D3
:100890000E94FB0783ED92E068E871E00E947E0809
:1008A00083ED92E060913F024AE050E00E94FB0736
:1008B00083ED92E06CE871E00E947E0883ED92E0A7
:1008C000609140024AE050E00E94FB0780911802CC
:1008D000813051F486E00E94B80660E0892B09F46B
:1008E00061E086E00E94640680913703882309F462
:1008F0004BC0009134038CE092E060E971E040E08D
:100900000E949D0D83ED92E061E971E00E947E08F6
:10091000809141028F5F80934102815063E00E9489
:10092000B70F992389F583ED92E06EE971E00E949B
:100930007E0883ED92E0602F4AE050E00E94FB07C2
:1009400083ED92E06DEA71E00E947E0863E070E062
:1009500080E090E00E9491058CE092E0602F47EBF0
:1009600051E028E000E03FE0E32E0E94ED0D8823F7
:1009700029F083ED92E060EC71E004C083ED92E039
:1009800064EC71E00E947E0883ED92E00E944C07C7
:1009900089E063E070E00E944C030F91EF900895AE
:1009A000EF92FF920F931F93DF93CF93CDB7DEB7F4
:1009B000E2970FB6F894DEBF0FBECDBF43EDE42E35
:1009C00042E0F42EC70140E052EC61E070E00E948A
:1009D0001E096AE070E080E090E00E9491050CE062
:1009E00012E0C8016BE54AE224E60E943B0EC80112
:1009F0006CEC71E00E94680CC801609117020E94C3
:100A0000EC0A00D000D000D0EDB7FEB731968E01D1
:100A10000F5F1F4FADB7BEB712961C930E93119781
:100A20008DED91E09383828383E993E095838483C2
:100A30000E948D008DB79EB706960FB6F8949EBFA4
:100A40000FBE8DBFC701B8010E94810886E061E03A
:100A50000E94250686E060E00E946406E2960FB6DA
:100A6000F894DEBF0FBECDBFCF91DF911F910F91E4
:100A7000FF90EF9008951F920F920FB60F921124DE
:100A80002F933F938F939F93AF93BF938091460291
:100A900090914702A0914802B091490230914A02D8
:100AA0000196A11DB11D232F2D5F2D3720F02D574D
:100AB0000196A11DB11D20934A0280934602909396
:100AC0004702A0934802B09349028091420290915C
:100AD0004302A0914402B09145020196A11DB11DAF
:100AE0008093420290934302A0934402B093450244
:100AF000BF91AF919F918F913F912F910F900FBE1A
:100B00000F901F9018958FB7F8942091460230915E
:100B1000470240914802509149028FBFB901CA0172
:100B200008959B01AC017FB7F894809142029091A7
:100B30004302A0914402B091450266B5A89B05C04E
:100B40006F3F19F00196A11DB11D7FBFBA2FA92FCC
:100B5000982F8827860F911DA11DB11D62E0880F77
:100B6000991FAA1FBB1F6A95D1F7BC012DC0FFB703
:100B7000F8948091420290914302A0914402B09176
:100B80004502E6B5A89B05C0EF3F19F00196A11DEF
:100B9000B11DFFBFBA2FA92F982F88278E0F911D47
:100BA000A11DB11DE2E0880F991FAA1FBB1FEA9586
:100BB000D1F7861B970B885E9340C8F221503040D6
:100BC0004040504068517C4F211531054105510589
:100BD00071F60895789484B5826084BD84B581608F
:100BE00084BD85B5826085BD85B5816085BDEEE635
:100BF000F0E0808181608083E1E8F0E01082808114
:100C000082608083808181608083E0E8F0E0808181
:100C100081608083E1EBF0E0808184608083E0EBA1
:100C2000F0E0808181608083EAE7F0E08081846089
:100C300080838081826080838081816080838081E5
:100C4000806880831092C1000895CF93DF93482F6E
:100C500050E0CA0186569F4FFC0134914A575F4FBE
:100C6000FA018491882369F190E0880F991FFC01B3
:100C7000E859FF4FA591B491FC01EE58FF4FC59183
:100C8000D491662351F42FB7F8948C91932F9095BB
:100C900089238C93888189230BC0623061F42FB73C
:100CA000F8948C91932F909589238C938881832B32
:100CB00088832FBF06C09FB7F8948C91832B8C93A9
:100CC0009FBFDF91CF910895482F50E0CA01825510
:100CD0009F4FFC012491CA0186569F4FFC019491BD
:100CE0004A575F4FFA013491332309F440C022235D
:100CF00051F1233071F0243028F42130A1F022305A
:100D000011F514C02630B1F02730C1F02430D9F4E9
:100D100004C0809180008F7703C0809180008F7D18
:100D20008093800010C084B58F7702C084B58F7D1A
:100D300084BD09C08091B0008F7703C08091B0005E
:100D40008F7D8093B000E32FF0E0EE0FFF1FEE5891
:100D5000FF4FA591B4912FB7F894662321F48C919D
:100D60009095892302C08C91892B8C932FBF089575
:100D7000682F70E0CB0182559F4FFC012491CB017D
:100D800086569F4FFC0144916A577F4FFB01949117
:100D9000992319F420E030E03CC0222351F12330A4
:100DA00071F0243028F42130A1F0223011F514C064
:100DB0002630B1F02730C1F02430D9F404C080913E
:100DC00080008F7703C0809180008F7D80938000AA
:100DD00010C084B58F7702C084B58F7D84BD09C0F3
:100DE0008091B0008F7703C08091B0008F7D809399
:100DF000B000892F90E0880F991F84589F4FFC0105
:100E0000A591B4918C9120E030E0842311F021E091
:100E100030E0C9010895CF93DF930E94EA050E9454
:100E2000D004C0EDD8E00E946C032097E1F30E944B
:100E3000D008F9CFCF92DF92EF92FF920F931F93DA
:100E4000CF93DF937C016B018A01C0E0D0E00FC03B
:100E5000D6016D916D01D701ED91FC910190F0816A
:100E6000E02DC7010995C80FD91F01501040011589
:100E7000110571F7CE01DF91CF911F910F91FF9076
:100E8000EF90DF90CF900895DC01ED91FC910190FF
:100E9000F081E02D09950895EF92FF920F931F9333
:100EA0008C01DC01ED91FC910190F081E02D6DE071
:100EB00009957C01D801ED91FC910190F081E02D24
:100EC000C8016AE009959C012E0D3F1DC9011F91C3
:100ED0000F91FF90EF900895CF93DF93EC01611590
:100EE000710519F420E030E00FC0DB010D90002007
:100EF000E9F71197A61BB70BE881F9810280F3810E
:100F0000E02DAD0109959C01C901DF91CF910895B4
:100F10004F925F927F928F929F92AF92BF92CF92A9
:100F2000DF92EF92FF920F931F93DF93CF93CDB792
:100F3000DEB7A1970FB6F894DEBF0FBECDBF2C0170
:100F4000742ECB01223008F42AE019A231E2C32E1C
:100F5000D12CCC0EDD1E822E9924AA24BB24672D11
:100F6000752FA50194010E94C30F79018A01C80160
:100F7000B701A50194010E94980F472D461B0894C4
:100F8000C108D1084A3014F4405D01C0495CF60143
:100F90004083E114F1040105110521F07E2C5F2D41
:100FA000C801DDCFC201B6010E946C07A1960FB641
:100FB000F894DEBF0FBECDBFCF91DF911F910F918F
:100FC000FF90EF90DF90CF90BF90AF909F908F9069
:100FD0007F905F904F900895DC012115310541F419
:100FE000ED91FC910190F081E02D642F0995089519
:100FF0000E9488070895EF92FF920F931F939A0122
:10100000E62EFF2400E010E0B801A7010E94EC07E3
:101010001F910F91FF90EF900895CF92DF92EF9282
:10102000FF920F931F936C01E62E9A01FF2400E0BC
:1010300010E0B801A7010E94EC078C01C6010E94D4
:101040004C07080F191FC8011F910F91FF90EF90D7
:10105000DF90CF900895CF92DF92EF92FF920F939F
:101060001F93CF93DF93EC016A017B0121153105BA
:1010700041F4E881F9810190F081E02D642F099518
:101080001FC02A303105D1F477FF17C0E881F981FC
:101090000190F081E02D6DE209958C0144275527E0
:1010A000BA014C195D096E097F09CE012AE00E9440
:1010B00088079801280F391F04C02AE00E9488077A
:1010C0009C01C901DF91CF911F910F91FF90EF908B
:1010D000DF90CF900895EF92FF920F931F937B01C3
:1010E0009A010027F7FC0095102FB801A7010E9474
:1010F0002B081F910F91FF90EF9008950E946C07AD
:101100000895EF92FF920F931F937C010E946C074A
:101110008C01C7010E944C07080F191FC8011F91BD
:101120000F91FF90EF90089508951F920F920FB6C0
:101130000F9211242F933F934F938F939F93EF938D
:10114000FF938091C00082FD1DC04091C600209198
:101150008B0230918C022F5F3F4F2F733070809144
:101160008D0290918E022817390771F0E0918B0261
:10117000F0918C02E55BFD4F408330938C0220930D
:101180008B0202C08091C600FF91EF919F918F91D9
:101190004F913F912F910F900FBE0F901F90189578
:1011A000E091DF02F091E002E05CFF4F81919191CC
:1011B00020813181821B930B8F739070892B11F0EA
:1011C0000E94940808951F920F920FB60F92112457
:1011D0002F933F938F939F93EF93FF932091CF0291
:1011E0003091D0028091D1029091D2022817390714
:1011F00031F48091C1008F7D8093C10014C0E091D3
:10120000D102F091D202E157FD4F20818091D102AD
:101210009091D20201968F7390709093D202809336
:10122000D1022093C600FF91EF919F918F913F9142
:101230002F910F900FBE0F901F901895AF92BF92F5
:10124000DF92EF92FF920F931F93CF93DF93EC0106
:101250007A018B01DD24403081EE580780E0680779
:1012600080E0780711F0DD24D39491E0A92EB12C11
:10127000EC89FD89DD2069F0C50108A002C0880F56
:10128000991F0A94E2F7808360E079E08DE390E0B3
:1012900005C0108260E874E88EE190E0A801970133
:1012A0000E94C30F21503040404050405695479512
:1012B0003795279580E12030380720F0DD2011F0A8
:1012C000DD24D6CFE889F9893083EA89FB89208338
:1012D00019A2EE89FF89408121E030E0C9010C8C20
:1012E00002C0880F991F0A94E2F7482B4083EE89C9
:1012F000FF894081C9010D8C02C0880F991F0A9493
:10130000E2F7482B4083EE89FF894081C9010E8CAA
:1013100002C0880F991F0A94E2F7482B4083EE8998
:10132000FF8980810F8C02C0220F331F0A94E2F7DD
:10133000209528232083DF91CF911F910F91FF905B
:10134000EF90DF90BF90AF900895DC011C96ED9177
:10135000FC911D97E05CFF4F21913191808191813B
:10136000281B390B2F733070C9010895DC011C96BE
:10137000ED91FC911D97E05CFF4F20813181E0549D
:10138000F040DF01AE5BBF4F8D919C911197281704
:10139000390719F42FEF3FEF07C08D919C91E80FAB
:1013A000F91F8081282F30E0C9010895DC011C96C7
:1013B000ED91FC911D97E05CFF4F20813181E0545D
:1013C000F040DF01AE5BBF4F8D919C9111972817C4
:1013D000390719F42FEF3FEF10C08D919C911197B1
:1013E000E80FF91F20818D919C91119701968F73C1
:1013F000907011969C938E9330E0C9010895DC01A2
:1014000091968C919197882339F05496ED91FC91A7
:101410005597808186FFF9CF91961C920895CF93BE
:10142000DF93EC01EE85FF85E05CFF4F2081318189
:10143000E054F0402F5F3F4F2F733070DF01AE5B01
:10144000BF4F8D919C91119728173907D1F3E05C1C
:10145000FF4F80819181E054F040E80FF91F6083D5
:10146000EE85FF85E05CFF4F31832083EE89FF89A5
:10147000208181E090E00F8C02C0880F991F0A94B0
:10148000E2F7282B208381E089A3EC89FD89808104
:101490008064808381E090E0DF91CF910895109285
:1014A000D6021092D50288EE93E0A0E0B0E08093DF
:1014B000D7029093D802A093D902B093DA0289EFB1
:1014C00091E09093D4028093D3028BE492E09093C6
:1014D000E0028093DF028FE892E09093E202809333
:1014E000E10285EC90E09093E4028093E30284ECC7
:1014F00090E09093E6028093E50280EC90E0909378
:10150000E8028093E70281EC90E09093EA028093F6
:10151000E90282EC90E09093EC028093EB0286EC7F
:1015200090E09093EE028093ED0284E08093EF02CE
:1015300083E08093F00287E08093F10285E080935E
:10154000F20281E08093F3020895FC0160835283EC
:1015500041830895882319F48CB5806202C08CB54C
:101560008F7D8CBD08959CB5937F982B9CBD08956D
:101570002CB5382F33702C7F322B3CBD2DB590E02D
:10158000959587959595879581702E7F822B8DBD3A
:1015900008958AE061E00E9464068AE061E00E94AA
:1015A00025068CB580618CBD8CB580648CBD8DE0CA
:1015B00061E00E9425068BE061E00E942506089507
:1015C000E0913B03F0913C03A081B1812D913C91CE
:1015D000CF01F90109950895FC0165830895FC0187
:1015E000828161E00E94640678940895FC01F89479
:1015F000828160E00E94640608950F931F93CF9349
:10160000DF93EC01162F042F0E94F60A10681EBD0E
:101610000DB407FEFDCF8EB50EBD0DB407FEFDCF98
:101620008EB5CE010E94EF0ADF91CF911F910F91ED
:1016300008951F93CF93DF93EC01162F662311F4C7
:1016400045E501C04DE5CE016AE50E94FD0A112382
:1016500011F440E701C04CE7CE016CE50E94FD0AA1
:10166000DF91CF911F9108951F93CF93DF93EC01EA
:10167000162F0E94F60A1F771EBD0DB407FEFDCF80
:101680008EB51EBC0DB407FEFDCF1EB5CE010E9467
:10169000EF0A812FDF91CF911F910895CF93DF93B0
:1016A000EC016F83662311F44AE101C04FE0CE01E3
:1016B00063E10E94FD0A8F81882341F0CE0161E140
:1016C0000E94340B482F4F71406602C04E81406823
:1016D000CE0161E10E94FD0ADF91CF910895CF9381
:1016E000DF93EC01662351F063E241E00E94FD0AC2
:1016F000CE0163E20E94340B81FFFACFCE0164E297
:101700000E94340B282F30E0309521953F4F3595BE
:101710002795C901DF91CF9108951F93CF93DF9350
:10172000EC01162F80913203681709F459C062301A
:1017300089F1633030F46623E9F1613009F050C07B
:1017400031C06330A1F0643009F04AC0CE0161E0DD
:101750000E94340B482F437E4C60CE0161E00E9412
:10176000FD0A8F81882381F1CE0161E010C0CE0196
:1017700061E00E94340B482F437E4061CE0161E05E
:101780000E94FD0A8F818823F9F0CE0160E00E945B
:10179000190B1AC0CE0161E00E94340B482F437E22
:1017A00048600EC0CE0161E00E94340B482F437E9A
:1017B000446006C0CE0161E00E94340B482F437E96
:1017C000CE0161E00E94FD0A80913203882331F44A
:1017D000CE0167E20E94340B8823B4F710933203E2
:1017E000DF91CF911F910895CF93DF93EC0180910A
:1017F0003203833089F480913603882369F4CE0163
:1018000060E00E946F0B865A9F4F34F4CE0161E076
:101810000E948D0B81E001C080E0DF91CF9108959F
:10182000CF93DF93EC0110923303109234031092A4
:10183000350310923603109237031092380310923A
:101840003A031092390368E20E94340B82FF0AC007
:10185000CE016DE30E94340B482F4460CE016DE34E
:101860000E94FD0ACE0165E240E40E94FD0ACE011D
:1018700063E00E948D0BDF91CF9108959C01F89455
:1018800080913203833051F480913603882331F004
:10189000C90161E00E948D0B81E00895C9010E9499
:1018A000100C80E008951F93162F0E943E0C882391
:1018B00061F080913403811711F0112331F480918C
:1018C0003803882319F081E001C080E01F9108955A
:1018D0000F931F93CF93DF93EC018B0161E00E9484
:1018E0008D0B01151105E1F0CE010E94F60A8EEB79
:1018F0008EBD0DB407FEFDCF8EB520E030E0F801BF
:10190000E20FF31F80818EBD0DB407FEFDCF8EB5B3
:101910002F5F3F4F2031310591F7CE010E94EF0A32
:10192000CE016DE30E94340B482F4E7F80E0012BE7
:1019300009F081E0482BCE016DE30E94FD0ADF91A2
:10194000CF911F910F910895CF93DF93EC01809178
:101950003203833009F067C0CE0168E20E94340B85
:1019600082FF61C0CE0161E00E948D0BCE010E941A
:10197000F60A1EBC0DB407FEFDCF8EB51EBC0DB41D
:1019800007FEFDCF8EB580933603809136038334F6
:1019900010F082E402C080913603809336031EBCAF
:1019A0000DB407FEFDCF8EB5809335038D8188235E
:1019B00009F042C0909135038C819817E9F180912C
:1019C00035038823C9F110923603CE010E94EF0A35
:1019D0003AC00DB407FEFDCF8EB5809334031EBC14
:1019E0000DB407FEFDCF8EB5982F907890933803F5
:1019F00080748093370390E00BC01EBC0DB407FECB
:101A0000FDCF8EB5E92FF0E0EB50FD4F80839F5F57
:101A100080913303981788F3CE010E94EF0ACE011C
:101A200063E00E948D0BCE0160E00E946F0B9093EB
:101A30003A038093390307C0809136038350809323
:101A400033031EBCC6CFDF91CF910895CF92DF92B2
:101A5000EF92FF920F931F93CF93DF93EC01F62E3B
:101A6000D42EC52E122F61E00E948D0BCE0167E2AD
:101A70000E94340B87FFFACFCE0165E240E00E945E
:101A8000FD0A1E3308F01DE3CE010E94F60A80E82D
:101A90008EBD0DB407FEFDCF8EB51D5F1EBD13506C
:101AA0000DB407FEFDCF8EB5FEBC0DB407FEFDCF15
:101AB0008EB58C818EBD0DB407FEFDCF8EB5EE20A8
:101AC00031F080E88EBD0DB407FEFDCF07C00023C6
:101AD00061F080E48EBD0DB407FEFDCF8EB58D2D77
:101AE0009C2D9C01F90190E00DC01EBC0DB407FEB9
:101AF000FDCFF4CF80818EBD0DB407FEFDCF8EB536
:101B00009F5F31969117B0F3CE010E94EF0ACE018C
:101B100064E00E948D0B8B810E94B806892BD9F35B
:101B2000CE0161E00E948D0BDF91CF911F910F914B
:101B3000FF90EF90DF90CF900895EF92FF920F9378
:101B40001F93CF93DF93EC018B01F42EE0903403CD
:101B500003C0CE010E943E0CCE010E94F40B8823EC
:101B6000C1F3CE016E2DA8012F2D00E0EE24E394E9
:101B70000E94260DDF91CF911F910F91FF90EF9062
:101B80000895DF92EF92FF920F931F93CF93DF930D
:101B9000EC01162F7A01D22E6DE30E94340B482FF0
:101BA0004460CE016DE30E94FD0A03C0CE010E9495
:101BB0003E0CCE010E94F40B8823C1F3CE01612FAD
:101BC000A7012D2DEE240E94260DDF91CF911F91AC
:101BD0000F91FF90EF90DF9008954F925F926F9278
:101BE0007F928F929F92AF92BF92CF92DF92EF92AD
:101BF000FF920F931F93CF93DF93EC01862E3A0150
:101C0000422E502E9924AE2CBB24CC24DD24CE01B0
:101C1000682DA301242D01E00E94C10D0E948305BF
:101C20007B018C0108C0CE01682D0E94530C8823D3
:101C300011F081E00FC00E9483056E197F09800BAF
:101C4000910B6A157B058C059D0568F393945914D7
:101C5000F0F680E0DF91CF911F910F91FF90EF9010
:101C6000DF90CF90BF90AF909F908F907F906F90BC
:101C70005F904F900895CF92DF92EF92FF920F9373
:101C80001F93DF93CF93CDB7DEB7AA970FB6F89423
:101C9000DEBF0FBECDBF7C01042F522F6F3119F470
:101CA00030EC4EE40EC06B3211F44CE6C2C0663527
:101CB00009F0BBC049ED04C0663511F030EC01C03D
:101CC00030E0FE0131968AE2DF011D928A95E9F744
:101CD00081E0898394E09A8382E08B8323E02D83E3
:101CE0008E839F8390E4988785E089872A8786E0A2
:101CF0008B8783E38C8787E08D8788E08F8789E0F7
:101D0000898B89E18B8B22E42C8B85E28D8B9E8BDA
:101D100089E28F8B8CED888F8EE2898F88E88A8F9D
:101D20008FE28B8F8DE28C8F80E38D8F87E38F8F97
:101D300080E988A388E389A32AA38CE38BA38FE897
:101D40008CA38DE38DA382E18EA38FE68FA380E227
:101D500088A78FEF89A74E87388B5E8FF701828126
:101D600061E00E94250680E00E94B30A81E00E94A3
:101D7000AA0A84E00E94B80A0E94C90AC7016FE259
:101D80004AEA0E94FD0AC7016FE20E94340B8A3AB8
:101D9000A9F7C7016FE245E50E94FD0AC7016FE29E
:101DA0000E94340B8535A9F710E06E010894C11C20
:101DB000D11C05C0C70141810E94FD0A1F5FE12FB0
:101DC000F0E0EE0FFF1FEC0DFD1D60816F3F91F7FE
:101DD000C701D70117966C910E944E0BC70161E0B5
:101DE0000E948D0BC70167E20E94340B87FFFACF78
:101DF00080E060EE7AE043E050E00E941B0FF0923A
:101E00003C03E0923B03F701048381E0AA960FB6FE
:101E1000F894DEBF0FBECDBFCF91DF911F910F9120
:101E2000FF90EF90DF90CF90089544EE6B3209F071
:101E300043CF30E446CF823000F5E82FF0E0EE0FDC
:101E4000FF1FE35CFC4F71836083882319F08130AE
:101E5000A1F408C0809169008C7F842B8093690075
:101E6000E89A089580916900440F551F440F551F4B
:101E7000837F842B80936900E99A08951F920F92C3
:101E80000FB60F9211242F933F934F935F936F934D
:101E90007F938F939F93AF93BF93EF93FF93809123
:101EA0003D0390913E03892B29F0E0913D03F09191
:101EB0003E030995FF91EF91BF91AF919F918F9153
:101EC0007F916F915F914F913F912F910F900FBE36
:101ED0000F901F9018951F920F920FB60F9211241A
:101EE0002F933F934F935F936F937F938F939F9322
:101EF000AF93BF93EF93FF9380913F039091400383
:101F0000892B29F0E0913F03F09140030995FF915F
:101F1000EF91BF91AF919F918F917F916F915F9161
:101F20004F913F912F910F900FBE0F901F901895DA
:101F3000629FD001739FF001829FE00DF11D649FAD
:101F4000E00DF11D929FF00D839FF00D749FF00D39
:101F5000659FF00D9927729FB00DE11DF91F639FDA
:101F6000B00DE11DF91FBD01CF0111240895991B8A
:101F700079E004C0991F961708F0961B881F7A9580
:101F8000C9F780950895A1E21A2EAA1BBB1BFD017B
:101F90000DC0AA1FBB1FEE1FFF1FA217B307E40748
:101FA000F50720F0A21BB30BE40BF50B661F771FA0
:101FB000881F991F1A9469F7609570958095909580
:101FC0009B01AC01BD01CF0108952F923F924F922A
:101FD0005F926F927F928F929F92AF92BF92CF92B9
:101FE000DF92EF92FF920F931F93CF93DF93CDB7C2
:101FF000DEB7CA1BDB0B0FB6F894DEBF0FBECDBF3A
:1020000009942A88398848885F846E847D848C840A
:102010009B84AA84B984C884DF80EE80FD800C8113
:102020001B81AA81B981CE0FD11D0FB6F894DEBFF6
:102030000FBECDBFED010895EE0FFF1F0590F49187
:08204000E02D0994F894FFCF94
:102048005D2000205B52585F525353493A005D00AF
:10205800746F205B00496E76616C696420706179E9
:102068006C6F61642072656365697665642C206EA7
:102078006F74206D61746368696E67205061796C54
:102088006F616420737472756374210020533D007E
:1020980020543D00206D736749443D0020706B67F4
:1020A800547970653D002053697A653D005061633D
:1020B8006B61676520496E666F2E2E2E2E2E2000CE
:1020C80020413D0020423D0020433D0020443D008A
:1020D80000202D2041434B2073656E742E00205044
:1020E800696E67696E67206E6F64652000202D2019
:1020F80041434B2E2E2E0041434B20544553540050
:102108006F6B21006E6F7468696E6700746869731D
:102118004973456E63727970744B6579000A4C692E
:102128007374656E696E67206174202564204D683C
:102138007A2E2E2E00000000000F0A1A07A509D6D5
:0C21480009B609FF0900000000A40C000B
:00000001FF
