:100000000C9463000C9402170C942F170C948B0023
:100010000C948B000C948B000C948B000C948B0034
:100020000C948B000C948B000C948B000C948B0024
:100030000C948B000C948B000C948B000C948B0014
:100040000C941B0D0C948B000C9494100C94E210E7
:100050000C948B000C948B000C948B000C948B00F4
:100060000C948B000C948B000000000024002700EF
:100070002A0000000000250028002B0000000000DE
:1000800023002600290004040404040404040202DA
:100090000202020203030303030301020408102007
:1000A0004080010204081020010204081020000012
:1000B0000007000201000003040600000000000029
:1000C0000000FA094E1211241FBECFEFD8E0DEBFA8
:1000D000CDBF14E0A0E0B1E0ECE3F0E302C0059096
:1000E0000D92A035B107D9F715E0A0E5B4E001C045
:1000F0001D92AC38B107E1F710E0C6ECD0E004C0C7
:100100002297FE010E941818C23CD107C9F70E942D
:10011000EB0E0C941C180C940000EF92FF920F93BE
:100120001F937B018C0120E030E040E05FE40E94FF
:10013000090488238CF0C801B70120E030E040E0DA
:100140005FE40E9405020E9497049B01AC012050CD
:1001500030404040504806C0C801B7010E94970493
:100160009B01AC01B901CA011F910F91FF90EF9063
:100170000895A0E0B0E0EFEBF0E00C94DF17DC01B5
:100180002B01FA019C91923008F439C1EB0188816E
:10019000823008F433C1943069F4843009F02FC1FF
:1001A00011969C9111978981981709F428C1AEE1A5
:1001B000B3E025C1843009F421C18230A9F4923022
:1001C00009F01DC19A01AD0188E0EA010990AE0174
:1001D000E90109929E018150C1F7E20189811196DE
:1001E0009C918923818308C1923009F407C112963A
:1001F0002D903C901397EB018A819B811496AD90D2
:10020000BD90CD90DC901797EC80FD800E811F8112
:100210009101281B390BB90137FF04C066277727E6
:10022000621B730B603271050CF061C0121613066D
:100230006CF537014801062E04C096948794779494
:1002400067940A94D2F721E030E040E050E004C027
:10025000220F331F441F551F6A95D2F7215030409B
:10026000404050402E213F2140235123211531058C
:100270004105510521F021E030E040E050E07901F6
:100280008A01E628F728082919293CC0232BD1F137
:10029000260E371E35014601062E04C0969487941B
:1002A000779467940A94D2F721E030E040E050E080
:1002B00004C0220F331F441F551F6A95D2F72150E7
:1002C0003040404050402A213B214C215D212115E6
:1002D00031054105510521F021E030E040E050E0DA
:1002E00059016A01A628B728C828D9280BC0821549
:1002F00093052CF01C01AA24BB24650103C0EE2445
:10030000FF24870111969C91D20111968C91981728
:1003100009F445C0992339F0A80197012A193B092E
:100320004C095D0906C0A60195012E193F09400B35
:10033000510B57FD08C011823382228224833583FA
:10034000468357831DC081E08183338222828827C0
:100350009927DC01821B930BA40BB50B8483958337
:10036000A683B7830DC0220F331F441F551F24835C
:100370003583468357838281938101979383828358
:100380002481358146815781DA01C9010197A1098C
:10039000B1098F5F9F4FAF4FBF4328F30BC09183CD
:1003A00033822282EA0CFB1C0C1D1D1DE482F582A7
:1003B0000683178383E080832481358146815781BA
:1003C00057FF1AC0C901AA2797FDA095BA2F8170BF
:1003D0009070A070B0705695479537952795822BF1
:1003E000932BA42BB52B84839583A683B78382811B
:1003F0009381019693838283DF0101C0D201CD01F5
:10040000CDB7DEB7E2E10C94FB17A0E2B0E0EBE081
:10041000F2E00C94EB1769837A838B839C832D83A2
:100420003E834F835887E9E0EE2EF12CEC0EFD1E43
:10043000CE010196B7010E9488068E010F5E1F4F04
:10044000CE010596B8010E9488068A8991E0892725
:100450008A8BC701B801AE01475E5F4F0E94B900A9
:100460000E94B305A096E6E00C940718A0E2B0E065
:10047000ECE3F2E00C94EB1769837A838B839C8323
:100480002D833E834F835887F9E0EF2EF12CEC0E3D
:10049000FD1ECE010196B7010E9488068E010F5EF7
:1004A0001F4FCE010596B8010E948806C701B8010A
:1004B000AE01475E5F4F0E94B9000E94B305A0964F
:1004C000E6E00C940718A0E2B0E0E9E6F2E00C9454
:1004D000DF1769837A838B839C832D833E834F83CD
:1004E0005887CE010196BE01675F7F4F0E94880644
:1004F000CE010596BE016F5E7F4F0E9488069985EA
:10050000923088F089898230C8F0943019F48230B2
:1005100051F404C0843029F4923081F48EE193E0E8
:10052000C6C0923049F420E09A858A89981321E068
:100530002A87CE010996BBC0823049F420E09A8513
:100540008A89981321E02A8BCE014196B0C02D8470
:100550003E844F8458886D887E888F88988CEE24DE
:10056000FF248701AA24BB24650140E050E060E03D
:1005700070E0E0E0F0E0C10181709070892BE9F05B
:10058000E60CF71C081D191D9A01AB012A0D3B1D35
:100590004C1D5D1D80E090E0A0E0B0E0E614F704A3
:1005A0000805190520F481E090E0A0E0B0E0BA0170
:1005B000A901480F591F6A1F7B1FAA0CBB1CCC1C2A
:1005C000DD1C97FE08C081E090E0A0E0B0E0A82A22
:1005D000B92ACA2ADB2A3196E032F10549F0660CC5
:1005E000771C881C991C5694479437942794C3CF42
:1005F000FA85EA892B893C898B859C85280F391FD0
:100600002E5F3F4F17C0CA0181709070892B61F037
:1006100016950795F794E79480E090E0A0E0B0E8A5
:10062000E82AF92A0A2B1B2B76956795579547954B
:100630002F5F3F4F77FDE7CF0CC0440F551F661F5C
:10064000771F17FD4160EE0CFF1C001F111F21508A
:100650003040403090E0590790E0690790E4790716
:1006600060F32B8F3C8FDB01CA018F779070A070F5
:10067000B07080349105A105B10561F447FD0AC051
:10068000E114F1040105110529F0405C5F4F6F4F43
:100690007F4F40781A8EFE1711F081E08A8F4D8FC0
:1006A0005E8F6F8F78A383E0898FCE0149960E9479
:1006B000B305A096E2E10C94FB17A8E1B0E0E3E6F5
:1006C000F3E00C94E71769837A838B839C832D83F3
:1006D0003E834F835887B9E0EB2EF12CEC0EFD1EC4
:1006E000CE010196B7010E9488068E010F5E1F4F52
:1006F000CE010596B8010E9488062985223008F4AB
:100700007EC03989323010F4B8017CC08A859A895C
:1007100089278A87243011F0223031F4231709F019
:100720006EC06EE173E06EC0343039F41D861E86F3
:100730001F86188A1C861B8604C0323021F484E090
:100740008987B7015FC02B853C858B899C89281BD5
:10075000390B3C872B87ED84FE840F851889AD8883
:10076000BE88CF88D88CEA14FB040C051D0540F424
:10077000EE0CFF1C001F111F215030403C872B87BF
:1007800020E030E040E050E080E090E0A0E0B0E425
:1007900060E070E0EA14FB040C051D0540F0282B16
:1007A000392B4A2B5B2BEA18FB080C091D09B6955F
:1007B000A79597958795EE0CFF1C001F111F6F5F83
:1007C0007F4F6F31710531F7DA01C9018F77907072
:1007D000A070B07080349105A105B10561F427FDCA
:1007E0000AC0E114F1040105110529F0205C3F4F16
:1007F0004F4F5F4F20782D873E874F87588BBE0124
:10080000675F7F4FCB010E94B3056896EAE00C94C6
:100810000318A8E1B0E0EFE0F4E00C94EB17698373
:100820007A838B839C832D833E834F83588789E013
:10083000E82EF12CEC0EFD1ECE010196B7010E94B0
:1008400088068E010F5E1F4FCE010596B8010E94EB
:1008500088068985823040F08989823028F0C70176
:10086000B8010E94000701C08FEF6896E6E00C9483
:100870000718A8E0B0E0EFE3F4E00C94E8179B0160
:10088000AC0183E08983DA01C9018827B7FD83952C
:100890009927AA27BB27B82E2115310541055105F7
:1008A00019F482E089833AC08823A9F0203080E0DF
:1008B000380780E0480780E8580729F460E070E0D6
:1008C00080E09FEC30C0EE24FF248701E21AF30A97
:1008D000040B150B02C079018A018EE1C82ED12CC0
:1008E000DC82CB82ED82FE820F831887C801B701BC
:1008F0000E94640501971816190684F4082E04C096
:10090000EE0CFF1C001F111F0A94D2F7ED82FE822D
:100910000F831887C81AD90ADC82CB82BA82CE012B
:1009200001960E94B3052896E9E00C940418ACE007
:10093000B0E0EDE9F4E00C94EF1769837A838B83E0
:100940009C83CE010196BE016B5F7F4F0E9488069B
:100950008D81823061F1823050F1843021F48E81BA
:10096000882351F12EC02F81388537FD20C06E813C
:100970002F3131051CF06623F9F023C08EE190E0A1
:10098000821B930B29853A854B855C8504C056955F
:100990004795379527958A95D2F76623B1F05095FC
:1009A0004095309521953F4F4F4F5F4F0EC020E04F
:1009B00030E040E050E009C02FEF3FEF4FEF5FE73E
:1009C00004C020E030E040E050E8B901CA012C96B4
:1009D000E2E00C940B18A8E0B0E0E1EFF4E00C9436
:1009E000E7177B018C01611571058105910519F4EB
:1009F00082E0898360C083E089838EE1C82ED12C98
:100A0000DC82CB82ED82FE820F831887C801B7019A
:100A10000E946405FC013197F7FF3BC02227332772
:100A20002E1B3F0B57016801022E04C0D694C794B9
:100A3000B794A7940A94D2F740E050E060E070E0E9
:100A400081E090E0A0E0B0E004C0880F991FAA1FE9
:100A5000BB1F2A95D2F70197A109B1098E219F21C9
:100A6000A023B1230097A105B10521F041E050E09A
:100A700060E070E04A295B296C297D294D835E8303
:100A80006F8378878EE190E08E1B9F0B9C838B8316
:100A900012C0309781F00E2E04C0EE0CFF1C001F18
:100AA000111F0A94D2F7ED82FE820F831887CE1AA7
:100AB000DF0ADC82CB821A82CE0101960E94B30546
:100AC0002896EAE00C940318EF92FF920F931F937D
:100AD0007B018C0180E0E81680E0F80681E00807E1
:100AE00080E0180788F48FEFE816F104010511057E
:100AF00031F028F088E090E0A0E0B0E017C080E09E
:100B000090E0A0E0B0E012C080E0E81680E0F806D7
:100B100080E0080781E0180728F088E190E0A0E075
:100B2000B0E004C080E190E0A0E0B0E020E230E07E
:100B300040E050E0281B390B4A0B5B0B04C01695B4
:100B40000795F794E7948A95D2F7F701EA5DFC4F91
:100B50008081281B310941095109C9011F910F9159
:100B6000FF90EF900895DF92EF92FF920F931F9303
:100B7000FC01E480F58006811781D180808182307C
:100B800048F480E090E0A0E1B0E0E82AF92A0A2BDE
:100B90001B2BA5C0843009F49FC0823021F4EE24C1
:100BA000FF24870105C0E114F1040105110519F4C2
:100BB000E0E0F0E096C0628173819FEF62387907D0
:100BC0000CF05BC022E83FEF261B370B2A313105C2
:100BD0002CF020E030E040E050E02AC0B801A7014E
:100BE000022E04C076956795579547950A94D2F7DB
:100BF00081E090E0A0E0B0E004C0880F991FAA1F38
:100C0000BB1F2A95D2F70197A109B1098E219F2117
:100C1000A023B1230097A105B10521F081E090E068
:100C2000A0E0B0E09A01AB01282B392B4A2B5B2BBB
:100C3000DA01C9018F779070A070B070803491058F
:100C4000A105B10539F427FF09C0205C3F4F4F4F84
:100C50005F4F04C0215C3F4F4F4F5F4FE0E0F0E03B
:100C60002030A0E03A07A0E04A07A0E45A0710F0BD
:100C7000E1E0F0E079018A0127C06038710564F590
:100C8000FB01E158FF4FD801C7018F779070A0702A
:100C9000B07080349105A105B10539F4E7FE0DC0AF
:100CA00080E490E0A0E0B0E004C08FE390E0A0E03A
:100CB000B0E0E80EF91E0A1F1B1F17FF05C01695AE
:100CC0000795F794E794319687E016950795F79482
:100CD000E7948A95D1F705C0EE24FF248701EFEF52
:100CE000F0E06E2F679566276795902F9F77D794D2
:100CF000DD24D7948E2F8695492F462B582F5D29BA
:100D0000B701CA011F910F91FF90EF90DF900895F6
:100D1000FC01DB01408151812281622F6F7770E0FD
:100D2000221F2227221F9381892F880F822B282F91
:100D300030E0991F9927991F11969C9311972115BF
:100D40003105A9F5411551056105710511F482E0E0
:100D500037C082E89FEF13969C938E9312979A0167
:100D6000AB0167E0220F331F441F551F6A95D1F76F
:100D700083E08C930DC0220F331F441F551F129622
:100D80008D919C911397019713969C938E93129734
:100D9000203080E0380780E0480780E4580758F3A7
:100DA00014962D933D934D935C93179708952F3F81
:100DB000310579F4411551056105710519F484E097
:100DC0008C93089564FF03C081E08C9312C01C9241
:100DD00010C02F57304013963C932E93129783E008
:100DE0008C9387E0440F551F661F771F8A95D1F7B4
:100DF000706414964D935D936D937C93179708954B
:100E00001F93DC01FB019C91923008F447C0808164
:100E1000823008F443C0943051F411961C91843010
:100E200099F58181682F70E0611B71093FC08430A2
:100E300021F0923031F48230B9F18181882389F137
:100E40002DC011961C9111978230F1F081811817F5
:100E5000D9F412962D913C91139782819381821738
:100E6000930794F028173907BCF014968D919D9143
:100E70000D90BC91A02D2481358146815781281782
:100E800039074A075B0718F4112341F00AC082179B
:100E90009307A407B50740F4112319F061E070E04F
:100EA00005C06FEF7FEF02C060E070E0CB011F91E3
:100EB0000895AEE0B0E0EFE5F7E00C94ED170D8992
:100EC0001E8986E08C831A8309838FEF9FE79E83B8
:100ED0008D839E01275E3F4FCE0101966F89788DED
:100EE000A9010E947D072F813885020F131FF80189
:100EF00010822E96E4E00C940918ABE0B0E0E3E831
:100F0000F7E00C94DF173C012B015A01FC0117821A
:100F10001682838181FD03C06FEF7FEFC6C19AE027
:100F2000892E1E010894211C311CF3012381F2013A
:100F300023FD859123FF81912F01882309F4B2C1FC
:100F4000853239F423FD859123FF81912F0185326C
:100F500029F490E0B3010E947009E7CF982FFF2495
:100F6000EE249924FFE1FF15D0F09B3269F09C320A
:100F700028F4903259F0933291F40EC09D3249F02A
:100F8000903369F441E024C052E0F52A84E0F82A65
:100F900028C098E0F92A25C0E0E1FE2A22C0F7FC2B
:100FA00029C0892F80538A3070F4F6FE05C0989CC2
:100FB000902C1124980E15C0E89CE02C1124E80E0A
:100FC000F0E2FF2A0EC09E3229F4F6FC6BC140E429
:100FD000F42A07C09C3619F450E8F52A02C0983666
:100FE00049F4F20123FD959123FF91912F0199235B
:100FF00009F0B8CF892F8554833018F080528330A0
:1010000038F444E050E0A40EB51E5FE359830FC0EE
:10101000933631F0933779F0933509F056C020C0FC
:10102000F5018081898342E050E0A40EB51E610184
:1010300001E010E012C0F501C080D180F6FC03C0D1
:101040006FEF7FEF02C0692D70E042E050E0A40E28
:10105000B51EC6010E9465098C015FE7F52214C028
:10106000F501C080D180F6FC03C06FEF7FEF02C0B6
:10107000692D70E042E050E0A40EB51EC6010E944A
:101080005A098C0150E8F52AF3FE07C01AC080E225
:1010900090E0B3010E947009EA948E2D90E0081749
:1010A0001907A8F30EC0F601F7FC8591F7FE8191B0
:1010B0006F0190E0B3010E947009E110EA940150C1
:1010C00010400115110579F7EAC0943611F09936F0
:1010D00069F5F7FE08C0F501208131814281538115
:1010E00084E090E00AC0F501808191819C01442751
:1010F00037FD4095542F82E090E0A80EB91E9FE680
:10110000F92257FF09C050954095309521953F4FE2
:101110004F4F5F4FE0E8FE2ACA01B901A1012AE062
:1011200030E00E949C09D82ED21840C0953729F48F
:101130001F2D1F7E2AE030E01DC01F2D197F9F3616
:1011400061F0903720F4983509F0ACC00FC09037AB
:1011500039F0983709F0A6C004C028E030E00AC092
:10116000106114FD146020E130E004C014FD16602D
:1011700020E132E017FF08C0F501608171818281B2
:10118000938144E050E008C0F50180819181BC0169
:1011900080E090E042E050E0A40EB51EA1010E9464
:1011A0009C09D82ED2188FE7F82EF122F6FE0BC03C
:1011B0005EEFF522D91438F4F4FE07C0F2FC05C046
:1011C0008FEEF82202C01D2D01C0192DF4FE0DC0B6
:1011D000FE01ED0DF11D8081803319F499EEF922A5
:1011E00008C01F5FF2FE05C003C08F2D867809F08E
:1011F0001F5F0F2DF3FC14C0F0FE0FC01E1510F082
:101200009D2C0BC09D2C9E0C911A1E2D06C080E2B9
:1012100090E0B3010E9470091F5F1E15C0F304C067
:101220001E1510F4E11A01C0EE2404FF0FC080E384
:1012300090E0B3010E94700902FF1DC001FD03C0D0
:1012400088E790E00EC088E590E00BC0802F86789C
:1012500091F001FF02C08BE201C080E2F7FC8DE259
:1012600090E0B3010E94700906C080E390E0B301F2
:101270000E9470099A94D914C0F3DA94F101ED0D2B
:10128000F11D808190E0B3010E947009DD20A9F773
:1012900006C080E290E0B3010E947009EA94EE205B
:1012A000C1F743CEF30166817781CB012B96E2E152
:1012B0000C94FB17FC010590615070400110D8F7A9
:1012C000809590958E0F9F1F0895FC01615070408E
:1012D00001900110D8F7809590958E0F9F1F08956B
:1012E0000F931F93CF93DF938C01EB018B8181FFD1
:1012F0001BC082FF0DC02E813F818C819D812817EC
:10130000390764F4E881F9810193F983E88306C021
:10131000E885F985802F0995892B31F48E819F818D
:1013200001969F838E8302C00FEF1FEFC801DF91EC
:10133000CF911F910F910895FA01AA27283051F1FA
:10134000203181F1E8946F936E7F6E5F7F4F8F4FF6
:101350009F4FAF4FB1E03ED0B4E03CD0670F781F55
:10136000891F9A1FA11D680F791F8A1F911DA11D3A
:101370006A0F711D811D911DA11D20D009F4689473
:101380003F912AE0269F11243019305D3193DEF61B
:10139000CF010895462F4770405D4193B3E00FD0D1
:1013A000C9F7F6CF462F4F70405D4A3318F0495DBC
:1013B00031FD4052419302D0A9F7EACFB4E0A6959F
:1013C0009795879577956795BA95C9F700976105C1
:1013D000710508959B01AC010A2E06945795479517
:1013E00037952795BA95C9F7620F731F841F951F0C
:1013F000A01D08958EE494E090937F0480937E0472
:101400008AE08093800482E08093810481E080936D
:101410007D05109283048FE18093840410928504EB
:101420000895CF93DF93C6E2D4E005C0888160E0E1
:101430000E94440E229684E0CE34D807B9F7DF919B
:10144000CF910895EF920F938EE794E060E071E002
:1014500040E00E9461150E94630D609352047093F6
:10146000530480935404909355048AE0809350046D
:1014700082E080935104A6E5B4E0E6E7F4E088E07A
:1014800001900D928150E1F78EE794E063E640E52C
:1014900054E026E202E03FE0E32E0E94B1158823EB
:1014A00029F08EE195E061E071E004C08EE195E005
:1014B00065E071E00E947D100F91EF900895A6E71E
:1014C000B4E0E6E5F4E088E001900D928150E1F7A8
:1014D0008EE195E06DE071E00E947D108EE195E077
:1014E000609176044AE050E00E94ED0F8EE195E0B5
:1014F0006BE171E00E947D108EE195E060917704D0
:101500004AE050E00E94ED0F8EE195E06CE271E060
:101510000E947D108EE195E0609178044AE050E0F1
:101520000E94ED0F8EE195E069E371E00E947D106D
:101530008EE195E0609179044AE050E00E94ED0F61
:101540008EE195E06EE471E00E947D108EE195E001
:1015500060917A044AE050E00E94ED0F8EE195E040
:1015600064E671E00E947D108EE195E060917B045D
:101570004AE050E00E94ED0F8EE195E067E771E0F0
:101580000E947D1060917C0470917D048EE195E055
:101590004AE050E00E945E100E94110AE091760439
:1015A000F0E0EE0FFF1FEA5DFB4F808161E00E94DB
:1015B000440E0895DF92EF92FF920F931F93D82E5F
:1015C0007B0161E00E94050E8D2D61E00E94440EBA
:1015D0000027F7FC0095102FC801B7010E94710D7C
:1015E0008D2D60E00E94440E1F910F91FF90EF90AF
:1015F000DF900895EF92FF920F931F938EE794E090
:101600000E940214882309F42AC18EE195E06BE55B
:101610000E94240F60917F058EE195E04AE050E042
:101620000E94DB0F8EE195E064E871E00E947D107E
:101630008EE195E067E871E00E947D108EE794E00E
:1016400060E00E943313BC018EE195E04AE050E077
:101650000E944B108EE195E062E971E00E947D10DE
:10166000809188048823A1F08EE195E064E971E01F
:101670000E947D10609180058EE195E04AE050E087
:101680000E94DB0F8EE195E064E871E00E947D101E
:1016900080917E05863239F08EE195E069E971E04E
:1016A0000E947D1083C0A0E5B4E0E0E4F5E086E2AE
:1016B00001900D928150E1F78EE195E060ED71E0CF
:1016C0000E947D1060917F058EE195E04AE050E038
:1016D0000E94DB0F8EE195E064ED71E00E947D10C9
:1016E000609180058EE195E04AE050E00E94ED0FA8
:1016F0008EE195E068ED71E00E947D10409152040A
:101700005091530460915404709155048EE195E01A
:101710002AE030E00E94CC0F8EE195E060EE71E0AF
:101720000E947D108EE195E0609150044AE050E007
:101730000E94DB0F8EE195E06AEE71E00E947D1061
:1017400060917E058EE195E04AE050E00E94ED0F49
:101750008EE195E061EF71E00E948010809150046D
:101760008A30F1F480915104813019F0823099F47B
:1017700009C08EE195E064E072E00E9480100E9452
:101780005F0A14C08EE195E06DE272E00E94801065
:101790000E94220A0BC08EE195E06AE572E004C067
:1017A0008EE195E068E772E00E94801080918205EA
:1017B000882309F44BC000917F058EE794E060E038
:1017C00071E040E00E9461158EE195E061E972E010
:1017D0000E947D10809186048F5F809386048150E3
:1017E00063E00E94B117992389F58EE195E06EE9D7
:1017F00072E00E947D108EE195E0602F4AE050E09B
:101800000E94DB0F8EE195E06DEA72E00E947D1090
:1018100063E070E080E090E00E94710D8EE794E05C
:10182000602F47EB52E028E000E07FE0E72E0E94C7
:10183000B115882329F08EE195E061E071E004C0E4
:101840008EE195E065E071E00E947D108EE195E00B
:101850000E942C0F89E063E070E00E94DA0A0E9487
:10186000630D20E137E240E050E00E94BD176115B2
:1018700071058105910509F066C080918704882370
:1018800009F063C08EE195E060EC72E00E947D108B
:101890008EE195E0609178044AE050E00E94ED0FFF
:1018A00080917804813009F04AC08EE195E066EDC0
:1018B00072E00E94801080917A048F5F80937A0496
:1018C00090917904891728F083E0809378040E942E
:1018D000110A6091790470E080E090E00E94EB04CE
:1018E0007B018C016093890470938A0480938B043C
:1018F00090938C0460917A0470E0882777FD80953E
:10190000982F0E943904A80197010E945D0320E0EE
:1019100030E048EC52E40E9463020E948D00609324
:101920007B048EE195E068EE72E00E947D108EE10E
:1019300095E060917B044AE050E00E94ED0F81E069
:101940008093870402C0109287041F910F91FF902B
:10195000EF9008950F931F93DF93CF93CDB7DEB72A
:10196000E2970FB6F894DEBF0FBECDBF8EE195E0D3
:1019700040E052EC61E070E00E941D116AE070E00E
:1019800080E090E00E94710D8EE794E06BE54AE202
:1019900024E60E94FF158EE794E065EF72E00E9456
:1019A0002C148EE794E0609188040E94B01200D05D
:1019B00000D000D0EDB7FEB731968E010F5F1F4FFC
:1019C000ADB7BEB712961C930E93119786E093E0C5
:1019D0009383828383E993E0958384830E945907EC
:1019E000EDB7FEB736960FB6F894FEBF0FBEEDBF4B
:1019F0008EE195E0B8010E94801006E214E00CC070
:101A0000D8018C9161E00E94050EF801808160E0B0
:101A10000E94440E0E5F1F4FF4E00E341F0781F743
:101A2000E2960FB6F894DEBF0FBECDBFCF91DF9127
:101A30001F910F9108951F920F920FB60F921124CC
:101A40002F933F938F939F93AF93BF938091910474
:101A500090919204A0919304B091940430919504D4
:101A60000196A11DB11D232F2D5F2D3720F02D577D
:101A70000196A11DB11D209395048093910490932C
:101A80009204A0939304B093940480918D04909158
:101A90008E04A0918F04B09190040196A11DB11DF8
:101AA00080938D0490938E04A0938F04B093900440
:101AB000BF91AF919F918F913F912F910F900FBE4A
:101AC0000F901F9018958FB7F89420919104309142
:101AD000920440919304509194048FBFB901CA01BC
:101AE00008959B01AC017FB7F89480918D0490918B
:101AF0008E04A0918F04B091900466B5A89B05C098
:101B00006F3F19F00196A11DB11D7FBFBA2FA92FFC
:101B1000982F8827860F911DA11DB11D62E0880FA7
:101B2000991FAA1FBB1F6A95D1F7BC012DC0FFB733
:101B3000F89480918D0490918E04A0918F04B091BF
:101B40009004E6B5A89B05C0EF3F19F00196A11DD2
:101B5000B11DFFBFBA2FA92F982F88278E0F911D77
:101B6000A11DB11DE2E0880F991FAA1FBB1FEA95B6
:101B7000D1F7861B970B885E9340C8F22150304006
:101B80004040504068517C4F2115310541055105B9
:101B900071F60895789484B5826084BD84B58160BF
:101BA00084BD85B5826085BD85B5816085BDEEE665
:101BB000F0E0808181608083E1E8F0E01082808144
:101BC00082608083808181608083E0E8F0E08081B2
:101BD00081608083E1EBF0E0808184608083E0EBD2
:101BE000F0E0808181608083EAE7F0E080818460BA
:101BF0008083808182608083808181608083808116
:101C0000806880831092C1000895CF93DF93482F9E
:101C100050E0CA0186569F4FFC0134914A575F4FEE
:101C2000FA018491882369F190E0880F991FFC01E3
:101C3000E859FF4FA591B491FC01EE58FF4FC591B3
:101C4000D491662351F42FB7F8948C91932F9095EB
:101C500089238C93888189230BC0623061F42FB76C
:101C6000F8948C91932F909589238C938881832B62
:101C700088832FBF06C09FB7F8948C91832B8C93D9
:101C80009FBFDF91CF910895482F50E0CA01825540
:101C90009F4FFC012491CA0186569F4FFC019491ED
:101CA0004A575F4FFA013491332309F440C022238D
:101CB00051F1233071F0243028F42130A1F022308A
:101CC00011F514C02630B1F02730C1F02430D9F41A
:101CD00004C0809180008F7703C0809180008F7D49
:101CE0008093800010C084B58F7702C084B58F7D4B
:101CF00084BD09C08091B0008F7703C08091B0008F
:101D00008F7D8093B000E32FF0E0EE0FFF1FEE58C1
:101D1000FF4FA591B4912FB7F894662321F48C91CD
:101D20009095892302C08C91892B8C932FBF0895A5
:101D3000682F70E0CB0182559F4FFC012491CB01AD
:101D400086569F4FFC0144916A577F4FFB01949147
:101D5000992319F420E030E03CC0222351F12330D4
:101D600071F0243028F42130A1F0223011F514C094
:101D70002630B1F02730C1F02430D9F404C080916E
:101D800080008F7703C0809180008F7D80938000DA
:101D900010C084B58F7702C084B58F7D84BD09C023
:101DA0008091B0008F7703C08091B0008F7D8093C9
:101DB000B000892F90E0880F991F84589F4FFC0135
:101DC000A591B4918C9120E030E0842311F021E0C2
:101DD00030E0C9010895CF93DF930E94CA0D0E949D
:101DE000AA0CCFECD0E10E94FA0A2097E1F30E94FE
:101DF000CF10F9CFCF92DF92EF92FF920F931F9304
:101E0000CF93DF937C016B018A01C0E0D0E00FC06B
:101E1000D6016D916D01D701ED91FC910190F0819A
:101E2000E02DC7010995C80FD91F015010400115B9
:101E3000110571F7CE01DF91CF911F910F91FF90A6
:101E4000EF90DF90CF900895DC01ED91FC9101902F
:101E5000F081E02D09950895EF92FF920F931F9363
:101E60008C01DC01ED91FC910190F081E02D6DE0A1
:101E700009957C01D801ED91FC910190F081E02D54
:101E8000C8016AE009959C012E0D3F1DC9011F91F3
:101E90000F91FF90EF900895CF93DF93EC016115C0
:101EA000710519F420E030E00FC0DB010D90002037
:101EB000E9F71197A61BB70BE881F9810280F3813E
:101EC000E02DAD0109959C01C901DF91CF910895E5
:101ED0004F925F927F928F929F92AF92BF92CF92DA
:101EE000DF92EF92FF920F931F93DF93CF93CDB7C3
:101EF000DEB7A1970FB6F894DEBF0FBECDBF2C01A1
:101F0000742ECB01223008F42AE019A231E2C32E4C
:101F1000D12CCC0EDD1E822E9924AA24BB24672D41
:101F2000752FA50194010E94BD1779018A01C8018E
:101F3000B701A50194010E949217472D461B0894F2
:101F4000C108D1084A3014F4405D01C0495CF60173
:101F50004083E114F1040105110521F07E2C5F2D71
:101F6000C801DDCFC201B6010E944C0FA1960FB689
:101F7000F894DEBF0FBECDBFCF91DF911F910F91BF
:101F8000FF90EF90DF90CF90BF90AF909F908F9099
:101F90007F905F904F900895DC012115310541F449
:101FA000ED91FC910190F081E02D642F0995089549
:101FB0000E94680F0895EF92FF920F931F939A016A
:101FC000E62EFF2400E010E0B801A7010E94CC0F2C
:101FD0001F910F91FF90EF900895CF92DF92EF92B3
:101FE000FF920F931F936C01E62E9A01FF2400E0ED
:101FF00010E0B801A7010E94CC0F8C01C6010E941D
:102000002C0F080F191FC8011F910F91FF90EF901F
:10201000DF90CF900895CF92DF92EF92FF920F93CF
:102020001F93CF93DF93EC016A017B0121153105EA
:1020300041F4E881F9810190F081E02D642F099548
:102040001FC02A303105D1F477FF17C0E881F9812C
:102050000190F081E02D6DE209958C014427552710
:10206000BA014C195D096E097F09CE012AE00E9470
:10207000680F9801280F391F04C02AE00E94680FDA
:102080009C01C901DF91CF911F910F91FF90EF90BB
:10209000DF90CF900895EF92FF920F931F937B01F3
:1020A0009A010027F7FC0095102FB801A7010E94A4
:1020B0000B101F910F91FF90EF900895CF92DF9238
:1020C000EF92FF920F931F936C017B019A010027FF
:1020D000F7FC0095102FB801A7010E940B108C018E
:1020E000C6010E942C0F080F191FC8011F910F91E4
:1020F000FF90EF90DF90CF9008950E944C0F0895CD
:10210000EF92FF920F931F937C010E944C0F8C0162
:10211000C7010E942C0F080F191FC8011F910F91B2
:10212000FF90EF90089508951F920F920FB60F92AF
:1021300011242F933F934F938F939F93EF93FF938C
:102140008091C00082FD1DC04091C6002091D60440
:102150003091D7042F5F3F4F2F7330708091D80498
:102160009091D9042817390771F0E091D604F091C5
:10217000D704EA56FB4F40833093D7042093D6040C
:1021800002C08091C600FF91EF919F918F914F9176
:102190003F912F910F900FBE0F901F901895E091D7
:1021A0002A05F0912B05E05CFF4F819191912081F0
:1021B0003181821B930B8F739070892B11F00E94D9
:1021C000931008951F920F920FB60F9211242F9320
:1021D0003F938F939F93EF93FF9320911A05309134
:1021E0001B0580911C0590911D052817390731F4B6
:1021F0008091C1008F7D8093C10014C0E0911C05C7
:10220000F0911D05E652FB4F208180911C059091B5
:102210001D0501968F73907090931D0580931C058A
:102220002093C600FF91EF919F918F913F912F9145
:102230000F900FBE0F901F901895AF92BF92DF9234
:10224000EF92FF920F931F93CF93DF93EC017A01EC
:102250008B01DD24403081EE580780E0680780E084
:10226000780711F0DD24D39491E0A92EB12CEC89EC
:10227000FD89DD2069F0C50108A002C0880F991F03
:102280000A94E2F7808360E079E08DE390E005C096
:10229000108260E874E88EE190E0A80197010E9446
:1022A000BD172150304040405040569547953795D6
:1022B000279580E12030380720F0DD2011F0DD2463
:1022C000D6CFE889F9893083EA89FB89208319A26E
:1022D000EE89FF89408121E030E0C9010C8C02C009
:1022E000880F991F0A94E2F7482B4083EE89FF89F3
:1022F0004081C9010D8C02C0880F991F0A94E2F732
:10230000482B4083EE89FF894081C9010E8C02C0B1
:10231000880F991F0A94E2F7482B4083EE89FF89C2
:1023200080810F8C02C0220F331F0A94E2F72095A0
:1023300028232083DF91CF911F910F91FF90EF9081
:10234000DF90BF90AF900895DC011C96ED91FC9159
:102350001D97E05CFF4F2191319180819181281B75
:10236000390B2F733070C9010895DC011C96ED9173
:10237000FC911D97E05CFF4F20813181E054F040DB
:10238000DF01AE5BBF4F8D919C91119728173907E4
:1023900019F42FEF3FEF07C08D919C91E80FF91FC3
:1023A0008081282F30E0C9010895DC011C96ED9151
:1023B000FC911D97E05CFF4F20813181E054F0409B
:1023C000DF01AE5BBF4F8D919C91119728173907A4
:1023D00019F42FEF3FEF10C08D919C911197E80FEA
:1023E000F91F20818D919C91119701968F739070A8
:1023F00011969C938E9330E0C9010895DC0191966B
:102400008C919197882339F05496ED91FC915597D2
:10241000808186FFF9CF91961C920895CF93DF9328
:10242000EC01EE85FF85E05CFF4F20813181E054B7
:10243000F0402F5F3F4F2F733070DF01AE5BBF4F17
:102440008D919C91119728173907D1F3E05CFF4FCC
:1024500080819181E054F040E80FF91F6083EE85A0
:10246000FF85E05CFF4F31832083EE89FF89208167
:1024700081E090E00F8C02C0880F991F0A94E2F768
:10248000282B208381E089A3EC89FD8980818064E9
:10249000808381E090E0DF91CF9108951092210533
:1024A0001092200588EE93E0A0E0B0E08093220532
:1024B00090932305A0932405B09325058EE394E023
:1024C00090931F0580931E0586E994E090932B0559
:1024D00080932A058AED94E090932D0580932C0536
:1024E00085EC90E090932F0580932E0584EC90E08E
:1024F000909331058093300580EC90E09093330504
:102500008093320581EC90E09093350580933405FB
:1025100082EC90E0909337058093360586EC90E04E
:10252000909339058093380584E080933A0583E0E1
:1025300080933B0587E080933C0585E080933D05D3
:1025400081E080933E050895E0918605F09187052E
:10255000A081B1812D913C91CF01F9010995089598
:10256000FC0165830895FC01828161E00E94440EB4
:1025700078940895FC01F894828160E00E94440EF2
:1025800008950F931F93CF93DF93EC01162F042F21
:102590000E94BA1210681EBD0DB407FEFDCF8EB5A5
:1025A0000EBD0DB407FEFDCF8EB5CE010E94B31255
:1025B000DF91CF911F910F9108951F93CF93DF93D8
:1025C000EC01162F662311F445E501C04DE5CE015F
:1025D0006AE50E94C112112311F440E701C04CE7E3
:1025E000CE016CE50E94C112DF91CF911F91089539
:1025F0001F93CF93DF93EC01162F0E94BA121F771F
:102600001EBD0DB407FEFDCF8EB51EBC0DB407FE7A
:10261000FDCF1EB5CE010E94B312812FDF91CF9165
:102620001F910895CF93DF93EC016F83662311F41C
:102630004AE101C04FE0CE0163E10E94C1128F81E7
:10264000882341F0CE0161E10E94F812482F4F71BA
:10265000406602C04E814068CE0161E10E94C11215
:10266000DF91CF910895CF93DF93EC01662351F072
:1026700063E241E00E94C112CE0163E20E94F812BF
:1026800081FFFACFCE0164E20E94F812282F30E0D9
:10269000309521953F4F35952795C901DF91CF9111
:1026A00008951F93CF93DF93EC01162F80917D0542
:1026B000681709F459C0623089F1633030F4662339
:1026C000E9F1613009F050C031C06330A1F06430ED
:1026D00009F04AC0CE0161E00E94F812482F437E03
:1026E0004C60CE0161E00E94C1128F81882381F18C
:1026F000CE0161E010C0CE0161E00E94F812482FC7
:10270000437E4061CE0161E00E94C1128F81882327
:10271000F9F0CE0160E00E94DD121AC0CE0161E046
:102720000E94F812482F437E48600EC0CE0161E03F
:102730000E94F812482F437E446006C0CE0161E03B
:102740000E94F812482F437ECE0161E00E94C11220
:1027500080917D05882331F4CE0167E20E94F81252
:102760008823B4F710937D05DF91CF911F910895D1
:10277000CF93DF93EC0180917D05833089F48091C4
:102780008105882369F4CE0160E00E943313865AE4
:102790009F4F34F4CE0161E00E94511381E001C0EB
:1027A00080E0DF91CF910895CF93DF93EC011092F9
:1027B0007E0510927F05109280051092810510927F
:1027C000820510928305109285051092840568E2B7
:1027D0000E94F81282FF0AC0CE016DE30E94F81237
:1027E000482F4460CE016DE30E94C112CE0165E224
:1027F00040E40E94C112CE0163E00E945113DF91B8
:10280000CF9108959C01F89480917D05833051F417
:1028100080918105882331F0C90161E00E94511344
:1028200081E00895C9010E94D41380E008951F93A8
:10283000162F0E940214882361F080917F05811772
:1028400011F0112331F480918305882319F081E080
:1028500001C080E01F9108950F931F93CF93DF93E2
:10286000EC018B0161E00E94511301151105E1F0AB
:10287000CE010E94BA128EEB8EBD0DB407FEFDCFC5
:102880008EB520E030E0F801E20FF31F80818EBDAD
:102890000DB407FEFDCF8EB52F5F3F4F20313105C0
:1028A00091F7CE010E94B312CE016DE30E94F8129F
:1028B000482F4E7F80E0012B09F081E0482BCE01AC
:1028C0006DE30E94C112DF91CF911F910F91089586
:1028D000CF93DF93EC0180917D05833009F067C0D1
:1028E000CE0168E20E94F81282FF61C0CE0161E071
:1028F0000E945113CE010E94BA121EBC0DB407FEF5
:10290000FDCF8EB51EBC0DB407FEFDCF8EB58093F6
:10291000810580918105833410F082E402C08091AA
:102920008105809381051EBC0DB407FEFDCF8EB5D9
:10293000809380058D81882309F042C090918005A5
:102940008C819817E9F1809180058823C9F1109254
:102950008105CE010E94B3123AC00DB407FEFDCF2F
:102960008EB580937F051EBC0DB407FEFDCF8EB5DE
:10297000982F90789093830580748093820590E0DF
:102980000BC01EBC0DB407FEFDCF8EB5E92FF0E0E5
:10299000E05CFA4F80839F5F80917E05981788F3F3
:1029A000CE010E94B312CE0163E00E945113CE010A
:1029B00060E00E943313909385058093840507C0DF
:1029C00080918105835080937E051EBCC6CFDF9128
:1029D000CF910895CF92DF92EF92FF920F931F93C2
:1029E000CF93DF93EC01F62ED42EC52E122F61E08B
:1029F0000E945113CE0167E20E94F81287FFFACFBE
:102A0000CE0165E240E00E94C1121E3308F01DE3D2
:102A1000CE010E94BA1280E88EBD0DB407FEFDCF34
:102A20008EB51D5F1EBD13500DB407FEFDCF8EB5D4
:102A3000FEBC0DB407FEFDCF8EB58C818EBD0DB4EE
:102A400007FEFDCF8EB5EE2031F080E88EBD0DB4CF
:102A500007FEFDCF07C0002361F080E48EBD0DB4FA
:102A600007FEFDCF8EB58D2D9C2D9C01F90190E0C8
:102A70000DC01EBC0DB407FEFDCFF4CF80818EBD0E
:102A80000DB407FEFDCF8EB59F5F31969117B0F361
:102A9000CE010E94B312CE0164E00E9451138B81DB
:102AA0000E94980E892BD9F3CE0161E00E94511348
:102AB000DF91CF911F910F91FF90EF90DF90CF901A
:102AC0000895EF92FF920F931F93CF93DF93EC0142
:102AD0008B01F42EE0907F0503C0CE010E9402140A
:102AE000CE010E94B8138823C1F3CE016E2DA80138
:102AF0002F2D00E0EE24E3940E94EA14DF91CF91A1
:102B00001F910F91FF90EF900895DF92EF92FF9247
:102B10000F931F93CF93DF93EC01162F7A01D22EE0
:102B20006DE30E94F812482F4460CE016DE30E94CD
:102B3000C11203C0CE010E940214CE010E94B8133C
:102B40008823C1F3CE01612FA7012D2DEE240E9411
:102B5000EA14DF91CF911F910F91FF90EF90DF90DA
:102B600008954F925F926F927F928F929F92AF9251
:102B7000BF92CF92DF92EF92FF920F931F93CF936A
:102B8000DF93EC01862E3A01422E502E9924AE2C72
:102B9000BB24CC24DD24CE01682DA301242D01E02B
:102BA0000E9485150E94630D7B018C0108C0CE0137
:102BB000682D0E941714882311F081E00FC00E9435
:102BC000630D6E197F09800B910B6A157B058C05CF
:102BD0009D0568F393945914F0F680E0DF91CF914E
:102BE0001F910F91FF90EF90DF90CF90BF90AF902B
:102BF0009F908F907F906F905F904F900895CF92AD
:102C0000DF92EF92FF920F931F93DF93CF93CDB795
:102C1000DEB7AA970FB6F894DEBF0FBECDBF7C011A
:102C2000042F522F6F3119F430EC4EE40EC06B328A
:102C300011F44CE6C2C0663509F0BBC049ED04C0D2
:102C4000663511F030EC01C030E0FE0131968AE2C9
:102C5000DF011D928A95E9F781E0898394E09A83E8
:102C600082E08B8323E02D838E839F8390E498877B
:102C700085E089872A8786E08B8783E38C8787E0D6
:102C80008D8788E08F8789E0898B89E18B8B22E4AF
:102C90002C8B85E28D8B9E8B89E28F8B8CED888FC0
:102CA0008EE2898F88E88A8F8FE28B8F8DE28C8FFE
:102CB00080E38D8F87E38F8F80E988A388E389A3E2
:102CC0002AA38CE38BA38FE88CA38DE38DA382E1F1
:102CD0008EA38FE68FA380E288A78FEF89A74E8708
:102CE000388B5E8FF701828161E00E94050E80E0E3
:102CF0000E94651781E00E945C1784E00E946A17B9
:102D00000E947B17C7016FE24AEA0E94C112C70105
:102D10006FE20E94F8128A3AA9F7C7016FE245E50F
:102D20000E94C112C7016FE20E94F8128535A9F70F
:102D300010E06E010894C11CD11C05C0C70141817F
:102D40000E94C1121F5FE12FF0E0EE0FFF1FEC0D9C
:102D5000FD1D60816F3F91F7C701D70117966C91F8
:102D60000E941213C70161E00E945113C70167E27C
:102D70000E94F81287FFFACF80E064EA72E143E034
:102D800050E00E94DF16F0928705E0928605F70179
:102D9000048381E0AA960FB6F894DEBF0FBECDBFC4
:102DA000CF91DF911F910F91FF90EF90DF90CF9027
:102DB000089544EE6B3209F043CF30E446CF8230C1
:102DC00000F5E82FF0E0EE0FFF1FE857FA4F718390
:102DD0006083882319F08130A1F408C080916900D4
:102DE0008C7F842B80936900E89A08958091690014
:102DF000440F551F440F551F837F842B8093690018
:102E0000E99A08951F920F920FB60F9211242F93F3
:102E10003F934F935F936F937F938F939F93AF9362
:102E2000BF93EF93FF938091880590918905892B3B
:102E300029F0E0918805F09189050995FF91EF91BE
:102E4000BF91AF919F918F917F916F915F914F91C2
:102E50003F912F910F900FBE0F901F9018951F92CA
:102E60000F920FB60F9211242F933F934F935F93BE
:102E70006F937F938F939F93AF93BF93EF93FF9342
:102E800080918A0590918B05892B29F0E0918A0524
:102E9000F0918B050995FF91EF91BF91AF919F91B3
:102EA0008F917F916F915F914F913F912F910F90F3
:102EB0000FBE0F901F901895882319F48CB580626F
:102EC00002C08CB58F7D8CBD08959CB5937F982BE7
:102ED0009CBD08952CB5382F33702C7F322B3CBD10
:102EE0002DB590E0959587959595879581702E7F66
:102EF000822B8DBD08958AE061E00E94440E8AE035
:102F000061E00E94050E8CB580618CBD8CB580643B
:102F10008CBD8DE061E00E94050E8BE061E00E94B7
:102F2000050E0895629FD001739FF001829FE00D0E
:102F3000F11D649FE00DF11D929FF00D839FF00D38
:102F4000749FF00D659FF00D9927729FB00DE11DE4
:102F5000F91F639FB00DE11DF91FBD01CF011124C1
:102F60000895991B79E004C0991F961708F0961BE5
:102F7000881F7A95C9F780950895A1E21A2EAA1B99
:102F8000BB1BFD010DC0AA1FBB1FEE1FFF1FA21719
:102F9000B307E407F50720F0A21BB30BE40BF50B16
:102FA000661F771F881F991F1A9469F7609570959F
:102FB000809590959B01AC01BD01CF0108952F92A2
:102FC0003F924F925F926F927F928F929F92AF92B9
:102FD000BF92CF92DF92EF92FF920F931F93CF9306
:102FE000DF93CDB7DEB7CA1BDB0B0FB6F894DEBF9D
:102FF0000FBECDBF09942A88398848885F846E84C3
:103000007D848C849B84AA84B984C884DF80EE800C
:10301000FD800C811B81AA81B981CE0FD11D0FB615
:10302000F894DEBF0FBECDBFED010895EE0FFF1F78
:0C3030000590F491E02D0994F894FFCF76
:10303C00006F6B21006E6F7468696E6700207A6F89
:10304C006E654E756D626572203D00206461746121
:10305C00446972656374696F6E203D00207A6F6EEF
:10306C00655374617465203D0020746F74616C53FA
:10307C007072696E6B6C6554696D65203D002061E2
:10308C006374697665537072696E6B6C6554696DA7
:10309C0065203D002070657263656E74436F6D70C2
:1030AC006C657465203D0020706175736554696DA5
:1030BC0065203D005D2000205B52585F5253534900
:1030CC003A005D00746F205B00496E76616C696438
:1030DC00207061796C6F61642072656365697665D7
:1030EC00642C206E6F74206D61746368696E672048
:1030FC005061796C6F616420737472756374210014
:10310C0020533D0020543D00206D736749443D0021
:10311C0020706B67547970653D002053697A653D6A
:10312C00005061636B61676520496E666F2E2E2EB1
:10313C002E2E20002D2D2D20457865637574696E1B
:10314C006720537072696E6B6C65205A6F6E6520C8
:10315C00534554204D6574686F64200A000A2D2D68
:10316C002D20457865637574696E6720537072699C
:10317C006E6B6C65205A6F6E6520535441545553D9
:10318C00204D6574686F64200A00204D6574686F6B
:10319C0064206973206E6F7420737570706F727415
:1031AC006564202E2E2E2000204E6F2046756E63F7
:1031BC0074696F6E20646566696E65642E2E2E20B0
:1031CC0000202D2041434B2073656E742E0020503F
:1031DC00696E67696E67206E6F64652000202D2014
:1031EC0041434B2E2E2E0041434B2054455354004B
:1031FC0054696D6572204163746976652C20537433
:10320C006174653A20004578656375746520576173
:10321C00746368446F6720002520436F6D706C6584
:10322C0074653A2000746869734973456E637279EA
:10323C0070744B6579000A4C697374656E696E67BE
:10324C00206174202564204D687A2E2E2E000000FB
:10325C000000000000000001020203030303040449
:10326C000404040404040505050505050505050508
:10327C0005050505050506060606060606060606E8
:10328C0006060606060606060606060606060606D2
:10329C0006060606060607070707070707070707B8
:1032AC0007070707070707070707070707070707A2
:1032BC000707070707070707070707070707070792
:1032CC000707070707070707070707070707070782
:1032DC000707070707070808080808080808080868
:1032EC000808080808080808080808080808080852
:1032FC000808080808080808080808080808080842
:10330C000808080808080808080808080808080831
:10331C000808080808080808080808080808080821
:10332C000808080808080808080808080808080811
:10333C000808080808080808080808080808080801
:10334C0008080808080808080808080808080808F1
:10335C000808080808080F001000120003000500F8
:10336C000E001100130004000600000000000E12F5
:10337C00FA0EA411D511B511FE110000000068144D
:00000001FF
