:100000000C9463000C94710F0C949E0F0C948B0055
:100010000C948B000C948B000C948B000C948B0034
:100020000C948B000C948B000C948B000C948B0024
:100030000C948B000C948B000C948B000C948B0014
:100040000C947C050C948B000C9406090C945409B8
:100050000C948B000C948B000C948B000C948B00F4
:100060000C948B000C948B000000000024002700EF
:100070002A0000000000250028002B0000000000DE
:1000800023002600290004040404040404040202DA
:100090000202020203030303030301020408102007
:1000A0004080010204081020010204081020000012
:1000B0000007000201000003040600000000000029
:1000C00000002E03C00A11241FBECFEFD8E0DEBF10
:1000D000CDBF12E0A0E0B1E0E2E0F1E202C00590A5
:1000E0000D92AE37B107D9F713E0AEE7B2E001C029
:1000F0001D92A43BB107E1F710E0C6ECD0E004C0CC
:100100002297FE010E947B10C23CD107C9F70E94D2
:100110004C070C947F100C940000AEE0B0E0E3E9D3
:10012000F0E00C9450100D891E8986E08C831A83B0
:1001300009838FEF9FE79E838D839E01275E3F4F4C
:10014000CE0101966F89788DA9010E94B1002F819F
:100150003885020F131FF80110822E96E4E00C94EC
:100160006C10ABE0B0E0E7EBF0E00C9442103C0127
:100170002B015A01FC0117821682838181FD03C085
:100180006FEF7FEFC6C19AE0892E1E010894211CF3
:10019000311CF3012381F20123FD859123FF81911D
:1001A0002F01882309F4B2C1853239F423FD8591EA
:1001B00023FF81912F01853229F490E0B3010E9441
:1001C000A402E7CF982FFF24EE249924FFE1FF1526
:1001D000D0F09B3269F09C3228F4903259F093327F
:1001E00091F40EC09D3249F0903369F441E024C08F
:1001F00052E0F52A84E0F82A28C098E0F92A25C0C0
:10020000E0E1FE2A22C0F7FC29C0892F80538A3002
:1002100070F4F6FE05C0989C902C1124980E15C021
:10022000E89CE02C1124E80EF0E2FF2A0EC09E327A
:1002300029F4F6FC6BC140E4F42A07C09C3619F49B
:1002400050E8F52A02C0983649F4F20123FD959151
:1002500023FF91912F01992309F0B8CF892F85545D
:10026000833018F08052833038F444E050E0A40E1C
:10027000B51E5FE359830FC0933631F0933779F0A1
:10028000933509F056C020C0F5018081898342E092
:1002900050E0A40EB51E610101E010E012C0F501AE
:1002A000C080D180F6FC03C06FEF7FEF02C0692DE4
:1002B00070E042E050E0A40EB51EC6010E94990213
:1002C0008C015FE7F52214C0F501C080D180F6FCF7
:1002D00003C06FEF7FEF02C0692D70E042E050E095
:1002E000A40EB51EC6010E948E028C0150E8F52AAC
:1002F000F3FE07C01AC080E290E0B3010E94A4029E
:10030000EA948E2D90E008171907A8F30EC0F601A5
:10031000F7FC8591F7FE81916F0190E0B3010E9497
:10032000A402E110EA94015010400115110579F77B
:10033000EAC0943611F0993669F5F7FE08C0F50168
:10034000208131814281538184E090E00AC0F5012F
:10035000808191819C01442737FD4095542F82E094
:1003600090E0A80EB91E9FE6F92257FF09C05095EC
:100370004095309521953F4F4F4F5F4FE0E8FE2A63
:10038000CA01B901A1012AE030E00E94D002D82EB2
:10039000D21840C0953729F41F2D1F7E2AE030E087
:1003A0001DC01F2D197F9F3661F0903720F49835BE
:1003B00009F0ACC00FC0903739F0983709F0A6C0EB
:1003C00004C028E030E00AC0106114FD146020E190
:1003D00030E004C014FD166020E132E017FF08C0D1
:1003E000F501608171818281938144E050E008C011
:1003F000F50180819181BC0180E090E042E050E015
:10040000A40EB51EA1010E94D002D82ED2188FE7EB
:10041000F82EF122F6FE0BC05EEFF522D91438F467
:10042000F4FE07C0F2FC05C08FEEF82202C01D2DBD
:1004300001C0192DF4FE0DC0FE01ED0DF11D8081EE
:10044000803319F499EEF92208C01F5FF2FE05C04F
:1004500003C08F2D867809F01F5F0F2DF3FC14C0A9
:10046000F0FE0FC01E1510F09D2C0BC09D2C9E0C95
:10047000911A1E2D06C080E290E0B3010E94A402F2
:100480001F5F1E15C0F304C01E1510F4E11A01C051
:10049000EE2404FF0FC080E390E0B3010E94A402A9
:1004A00002FF1DC001FD03C088E790E00EC088E593
:1004B00090E00BC0802F867891F001FF02C08BE2A4
:1004C00001C080E2F7FC8DE290E0B3010E94A4023B
:1004D00006C080E390E0B3010E94A4029A94D9146C
:1004E000C0F3DA94F101ED0DF11D808190E0B301CC
:1004F0000E94A402DD20A9F706C080E290E0B301CB
:100500000E94A402EA94EE20C1F743CEF301668173
:100510007781CB012B96E2E10C945E10FC010590F3
:10052000615070400110D8F7809590958E0F9F1FF5
:100530000895FC016150704001900110D8F780953A
:1005400090958E0F9F1F08950F931F93CF93DF9366
:100550008C01EB018B8181FF1BC082FF0DC02E81BE
:100560003F818C819D812817390764F4E881F981E6
:100570000193F983E88306C0E885F985802F099502
:10058000892B31F48E819F8101969F838E8302C0D7
:100590000FEF1FEFC801DF91CF911F910F910895C9
:1005A000FA01AA27283051F1203181F1E8946F93A4
:1005B0006E7F6E5F7F4F8F4F9F4FAF4FB1E03ED04A
:1005C000B4E03CD0670F781F891F9A1FA11D680FE8
:1005D000791F8A1F911DA11D6A0F711D811D911D1B
:1005E000A11D20D009F468943F912AE0269F112490
:1005F0003019305D3193DEF6CF010895462F4770F4
:10060000405D4193B3E00FD0C9F7F6CF462F4F704E
:10061000405D4A3318F0495D31FD4052419302D0AC
:10062000A9F7EACFB4E0A695979587957795679552
:10063000BA95C9F700976105710508959B01AC0152
:100640000A2E06945795479537952795BA95C9F779
:10065000620F731F841F951FA01D08958CE792E001
:100660009093AE028093AD028AE08093AF0282E065
:100670008093B00281E08093A5031092B2028FE1D3
:100680008093B3021092B4020895A4EAB2E0E4E8C1
:10069000F2E088E001900D928150E1F786E493E06A
:1006A00060E071E00E94EF0886E493E06091A402AC
:1006B0004AE050E00E945F0886E493E06EE071E05B
:1006C0000E94EF0886E493E06091A5024AE050E0C2
:1006D0000E945F0886E493E06FE171E00E94EF08FA
:1006E00086E493E06091A6024AE050E00E945F0831
:1006F00086E493E06CE271E00E94EF0886E493E008
:100700006091A7024AE050E00E945F0886E493E00F
:1007100061E471E00E94EF0886E493E06091A80232
:100720004AE050E00E945F0886E493E067E571E0EC
:100730000E94EF0886E493E06091A9024AE050E04D
:100740000E945F0886E493E06AE671E00E94EF0889
:100750006091AA027091AB0286E493E04AE050E017
:100760000E94D0080895EF920F9386E493E067E724
:1007700071E00E94EF080E94C405609380027093AC
:10078000810280938202909383028AE080937E02AA
:1007900082E080937F028DEA92E06AE24EE752E0C7
:1007A00026E202E03FE0E32E0E94200E882329F09B
:1007B00086E493E06CE871E004C086E493E061E9CC
:1007C00071E00E94F2080F91EF9008959AE09093E3
:1007D0007E0291E090937F028093A4029093A60200
:1007E0008EE18093A7021092A8021092A902A4E8B9
:1007F000B2E0E4EAF2E088E001900D928150E1F786
:100800000895DF92EF92FF920F931F93D82E7B01F2
:1008100061E00E9466068D2D61E00E94A50600271A
:10082000F7FC0095102FC801B7010E94D2058D2D4D
:1008300060E00E94A5061F910F91FF90EF90DF905E
:100840000895AF92BF92CF92DF92EF920F938DEA0D
:1008500092E00E94710C882309F470C086E493E052
:100860006BE50E9485076091A70386E493E04AE068
:1008700050E00E944D0886E493E06DE971E00E942B
:10088000EF0886E493E060EA71E00E94EF088DEAE9
:1008900092E060E00E94A20BBC0186E493E04AE093
:1008A00050E00E94BD0886E493E06DEA71E00E948A
:1008B000EF088091AA03882399F08DEA92E06FEA0D
:1008C00071E040E00E94D00D86E493E060EB71E0BF
:1008D0000E94EF086AE070E080E090E00E94D2059C
:1008E00089E065E070E00E94010486E493E00E94E4
:1008F0008D07AEE7B2E0E8E6F3E086E201900D9204
:100900008150E1F780917E028A3091F480917F02DC
:10091000823049F486E493E06CEB71E00E94F208C7
:100920000E9445030BC086E493E063EE71E004C0CF
:1009300086E493E061E072E00E94F2080E94C40540
:1009400028EB38E840E050E00E9420106115710566
:100950008105910511F40E94B3030E94C40520ECA7
:1009600037E249E050E00E9420105901CC24B7FC46
:10097000C094DC2C8091640290916502A091660283
:10098000B0916702A816B906CA06DB0609F455C07D
:100990000E94C4056093800270938102809382025A
:1009A000909383028091AC020E94E60386E493E078
:1009B0006AE172E00E94EF0886E493E066E270E08C
:1009C0004AE050E00E943C0886E493E06BE272E06B
:1009D0000E94EF088DEA92E06AE24EE752E026E2DA
:1009E00002E07FE0E72E0E94200E882329F086E4B3
:1009F00093E06CE871E004C086E493E061E971E0A3
:100A00000E94EF0886E493E00E948D0789E063E08E
:100A100070E00E940104A0926402B0926502C0924C
:100A20006602D09267028091AC028A3019F410926B
:100A3000AC0203C08F5F8093AC020F91EF90DF9008
:100A4000CF90BF90AF900895EF92FF920F931F93B6
:100A5000DF93CF93CDB7DEB7E2970FB6F894DEBF42
:100A60000FBECDBFE6E4EE2EE3E0FE2EC70140E070
:100A700052EC61E070E00E948F090DEA12E0C801BB
:100A80006BE543E624E60E946E0EC80168E372E05F
:100A90000E949B0C00D000D000D0EDB7FEB731967D
:100AA0008E010F5F1F4FADB7BEB712961C930E930A
:100AB000119789E492E09383828383E993E095839D
:100AC00084830E948D008DB79EB706960FB6F8946A
:100AD0009EBF0FBE8DBFC701B8010E94F208E2960B
:100AE0000FB6F894DEBF0FBECDBFCF91DF911F913F
:100AF0000F91FF90EF9008951F920F920FB60F92F3
:100B000011242F933F938F939F93AF93BF93809123
:100B1000B9029091BA02A091BB02B091BC0230918F
:100B2000BD020196A11DB11D232F2D5F2D3720F091
:100B30002D570196A11DB11D2093BD028093B902CE
:100B40009093BA02A093BB02B093BC028091B5020D
:100B50009091B602A091B702B091B8020196A11D82
:100B6000B11D8093B5029093B602A093B702B093E3
:100B7000B802BF91AF919F918F913F912F910F90AC
:100B80000FBE0F901F9018958FB7F8942091B9025F
:100B90003091BA024091BB025091BC028FBFB901A3
:100BA000CA0108959B01AC017FB7F8948091B5020A
:100BB0009091B602A091B702B091B80266B5A89B19
:100BC00005C06F3F19F00196A11DB11D7FBFBA2F5F
:100BD000A92F982F8827860F911DA11DB11D62E0B6
:100BE000880F991FAA1FBB1F6A95D1F7BC012DC0A2
:100BF000FFB7F8948091B5029091B602A091B70228
:100C0000B091B802E6B5A89B05C0EF3F19F0019678
:100C1000A11DB11DFFBFBA2FA92F982F88278E0FB6
:100C2000911DA11DB11DE2E0880F991FAA1FBB1FD6
:100C3000EA95D1F7861B970B885E9340C8F2215046
:100C400030404040504068517C4F211531054105EE
:100C5000510571F60895789484B5826084BD84B599
:100C6000816084BD85B5826085BD85B5816085BDA7
:100C7000EEE6F0E0808181608083E1E8F0E01082C0
:100C8000808182608083808181608083E0E8F0E001
:100C9000808181608083E1EBF0E0808184608083EB
:100CA000E0EBF0E0808181608083EAE7F0E0808122
:100CB0008460808380818260808380818160808382
:100CC0008081806880831092C1000895CF93DF9364
:100CD000482F50E0CA0186569F4FFC0134914A5775
:100CE0005F4FFA018491882369F190E0880F991F82
:100CF000FC01E859FF4FA591B491FC01EE58FF4F5C
:100D0000C591D491662351F42FB7F8948C91932F09
:100D1000909589238C93888189230BC0623061F47C
:100D20002FB7F8948C91932F909589238C93888179
:100D3000832B88832FBF06C09FB7F8948C91832B99
:100D40008C939FBFDF91CF910895482F50E0CA0147
:100D500082559F4FFC012491CA0186569F4FFC018A
:100D600094914A575F4FFA013491332309F440C0FC
:100D7000222351F1233071F0243028F42130A1F0E6
:100D8000223011F514C02630B1F02730C1F02430E4
:100D9000D9F404C0809180008F7703C080918000D7
:100DA0008F7D8093800010C084B58F7702C084B59A
:100DB0008F7D84BD09C08091B0008F7703C0809182
:100DC000B0008F7D8093B000E32FF0E0EE0FFF1FA7
:100DD000EE58FF4FA591B4912FB7F894662321F4F4
:100DE0008C919095892302C08C91892B8C932FBF75
:100DF0000895682F70E0CB0182559F4FFC0124912C
:100E0000CB0186569F4FFC0144916A577F4FFB01EF
:100E10009491992319F420E030E03CC0222351F151
:100E2000233071F0243028F42130A1F0223011F564
:100E300014C02630B1F02730C1F02430D9F404C0FA
:100E4000809180008F7703C0809180008F7D809398
:100E5000800010C084B58F7702C084B58F7D84BDBB
:100E600009C08091B0008F7703C08091B0008F7D62
:100E70008093B000892F90E0880F991F84589F4F6E
:100E8000FC01A591B4918C9120E030E0842311F015
:100E900021E030E0C9010895CF93DF930E942B0633
:100EA0000E942405C1E4D9E00E9421042097E1F3C7
:100EB0000E944109F9CFCF92DF92EF92FF920F93F8
:100EC0001F93CF93DF937C016B018A01C0E0D0E0D8
:100ED0000FC0D6016D916D01D701ED91FC9101908C
:100EE000F081E02DC7010995C80FD91F01501040AE
:100EF0000115110571F7CE01DF91CF911F910F916F
:100F0000FF90EF90DF90CF900895DC01ED91FC9180
:100F10000190F081E02D09950895EF92FF920F93D3
:100F20001F938C01DC01ED91FC910190F081E02D8B
:100F30006DE009957C01D801ED91FC910190F08163
:100F4000E02DC8016AE009959C012E0D3F1DC901E5
:100F50001F910F91FF90EF900895CF93DF93EC01D5
:100F60006115710519F420E030E00FC0DB010D9030
:100F70000020E9F71197A61BB70BE881F9810280E1
:100F8000F381E02DAD0109959C01C901DF91CF915D
:100F900008954F925F927F928F929F92AF92BF92ED
:100FA000CF92DF92EF92FF920F931F93DF93CF9335
:100FB000CDB7DEB7A1970FB6F894DEBF0FBECDBF99
:100FC0002C01742ECB01223008F42AE019A231E260
:100FD000C32ED12CCC0EDD1E822E9924AA24BB2434
:100FE000672D752FA50194010E94201079018A01B7
:100FF000C801B701A50194010E940110472D461BAD
:101000000894C108D1084A3014F4405D01C0495C1D
:10101000F6014083E114F1040105110521F07E2C55
:101020005F2DC801DDCFC201B6010E94AD07A196B8
:101030000FB6F894DEBF0FBECDBFCF91DF911F91E9
:101040000F91FF90EF90DF90CF90BF90AF909F9067
:101050008F907F905F904F900895DC0121153105AE
:1010600041F4ED91FC910190F081E02D642F099500
:1010700008950E94C9070895EF92FF920F931F935E
:101080009A017B0100E010E0B801A7010E942D0841
:101090001F910F91FF90EF900895EF92FF920F93A1
:1010A0001F939A01E62EFF2400E010E0B801A7018B
:1010B0000E942D081F910F91FF90EF900895CF92FD
:1010C000DF92EF92FF920F931F936C01E62E9A012D
:1010D000FF2400E010E0B801A7010E942D088C0158
:1010E000C6010E948D07080F191FC8011F910F919B
:1010F000FF90EF90DF90CF900895CF92DF92EF9224
:10110000FF920F931F93CF93DF93EC016A017B0152
:101110002115310541F4E881F9810190F081E02D3C
:10112000642F09951FC02A303105D1F477FF17C00D
:10113000E881F9810190F081E02D6DE209958C0143
:1011400044275527BA014C195D096E097F09CE0164
:101150002AE00E94C9079801280F391F04C02AE01D
:101160000E94C9079C01C901DF91CF911F910F9186
:10117000FF90EF90DF90CF900895EF92FF920F9342
:101180001F937B019A010027F7FC0095102FB801EF
:10119000A7010E947D081F910F91FF90EF90089585
:1011A000CF92DF92EF92FF920F931F936C017B011E
:1011B0009A010027F7FC0095102FB801A7010E94A3
:1011C0007D088C01C6010E948D07080F191FC801F8
:1011D0001F910F91FF90EF90DF90CF9008950E94A4
:1011E000AD070895EF92FF920F931F937C010E9429
:1011F000AD078C01C7010E948D07080F191FC80198
:101200001F910F91FF90EF90089508951F920F92F4
:101210000FB60F9211242F933F934F938F939F9369
:10122000EF93FF938091C00082FD1DC04091C600E6
:101230002091FE023091FF022F5F3F4F2F733070DD
:1012400080910003909101032817390771F0E09114
:10125000FE02F091FF02E254FD4F40833093FF0203
:101260002093FE0202C08091C600FF91EF919F91F2
:101270008F914F913F912F910F900FBE0F901F9024
:101280001895E0915203F0915303E05CFF4F819178
:10129000919120813181821B930B8F739070892BE8
:1012A00011F00E94050908951F920F920FB60F9238
:1012B00011242F933F938F939F93EF93FF9320914C
:1012C00042033091430380914403909145032817D2
:1012D000390731F48091C1008F7D8093C10014C023
:1012E000E0914403F0914503EE5FFC4F2081809133
:1012F00044039091450301968F739070909345033A
:10130000809344032093C600FF91EF919F918F91AA
:101310003F912F910F900FBE0F901F901895AF9295
:10132000BF92DF92EF92FF920F931F93CF93DF93C1
:10133000EC017A018B01DD24403081EE580780E01A
:10134000680780E0780711F0DD24D39491E0A92E9E
:10135000B12CEC89FD89DD2069F0C50108A002C02F
:10136000880F991F0A94E2F7808360E079E08DE3AB
:1013700090E005C0108260E874E88EE190E0A8017A
:1013800097010E9420102150304040405040569517
:1013900047953795279580E12030380720F0DD20EC
:1013A00011F0DD24D6CFE889F9893083EA89FB89F9
:1013B000208319A2EE89FF89408121E030E0C90134
:1013C0000C8C02C0880F991F0A94E2F7482B4083C7
:1013D000EE89FF894081C9010D8C02C0880F991FD9
:1013E0000A94E2F7482B4083EE89FF894081C901C6
:1013F0000E8C02C0880F991F0A94E2F7482B408395
:10140000EE89FF8980810F8C02C0220F331F0A945E
:10141000E2F7209528232083DF91CF911F910F9130
:10142000FF90EF90DF90BF90AF900895DC011C9685
:10143000ED91FC911D97E05CFF4F219131918081EE
:101440009181281B390B2F733070C9010895DC017D
:101450001C96ED91FC911D97E05CFF4F208131813E
:10146000E054F040DF01AE5BBF4F8D919C9111972E
:101470002817390719F42FEF3FEF07C08D919C9182
:10148000E80FF91F8081282F30E0C9010895DC01A1
:101490001C96ED91FC911D97E05CFF4F20813181FE
:1014A000E054F040DF01AE5BBF4F8D919C911197EE
:1014B0002817390719F42FEF3FEF10C08D919C9139
:1014C0001197E80FF91F20818D919C91119701963A
:1014D0008F73907011969C938E9330E0C90108959C
:1014E000DC0191968C919197882339F05496ED9177
:1014F000FC915597808186FFF9CF91961C920895B3
:10150000CF93DF93EC01EE85FF85E05CFF4F2081F8
:101510003181E054F0402F5F3F4F2F733070DF0177
:10152000AE5BBF4F8D919C91119728173907D1F36E
:10153000E05CFF4F80819181E054F040E80FF91F9B
:101540006083EE85FF85E05CFF4F31832083EE8969
:10155000FF89208181E090E00F8C02C0880F991FE5
:101560000A94E2F7282B208381E089A3EC89FD8986
:1015700080818064808381E090E0DF91CF91089545
:10158000109249031092480388EE93E0A0E0B0E087
:1015900080934A0390934B03A0934C03B0934D0365
:1015A0008CE692E090934703809346038EEB92E0A3
:1015B000909353038093520382E093E090935503FA
:1015C0008093540385EC90E09093570380935603E7
:1015D00084EC90E0909359038093580380EC90E062
:1015E00090935B0380935A0381EC90E090935D03AA
:1015F00080935C0382EC90E090935F0380935E03A2
:1016000086EC90E0909361038093600384E0809384
:10161000620383E08093630387E08093640385E043
:101620008093650381E0809366030895E091AE03A3
:10163000F091AF03A081B1812D913C91CF01F901CF
:1016400009950895FC01828161E00E94A5067894C5
:101650000895FC01F894828160E00E94A506089537
:101660000F931F93CF93DF93EC01162F042F0E944B
:10167000290B10681EBD0DB407FEFDCF8EB50EBD43
:101680000DB407FEFDCF8EB5CE010E94220BDF9177
:10169000CF911F910F9108951F93CF93DF93EC018A
:1016A000162F662311F445E501C04DE5CE016AE52C
:1016B0000E94300B112311F440E701C04CE7CE012A
:1016C0006CE50E94300BDF91CF911F9108951F931D
:1016D000CF93DF93EC01162F0E94290B1F771EBDBD
:1016E0000DB407FEFDCF8EB51EBC0DB407FEFDCFB9
:1016F0001EB5CE010E94220B812FDF91CF911F9149
:101700000895CF93DF93EC016F83662311F44AE1D0
:1017100001C04FE0CE0163E10E94300B8F8188232E
:1017200041F0CE0161E10E94670B482F4F71406686
:1017300002C04E814068CE0161E10E94300BDF9112
:10174000CF910895CF93DF93EC01662351F063E2CC
:1017500041E00E94300BCE0163E20E94670B81FFE3
:10176000FACFCE0164E20E94670B282F30E030955B
:1017700021953F4F35952795C901DF91CF91089568
:101780001F93CF93DF93EC01162F8091A503681769
:1017900009F459C0623089F1633030F46623E9F10D
:1017A000613009F050C031C06330A1F0643009F0FD
:1017B0004AC0CE0161E00E94670B482F437E4C6017
:1017C000CE0161E00E94300B8F81882381F1CE0130
:1017D00061E010C0CE0161E00E94670B482F437E9C
:1017E0004061CE0161E00E94300B8F818823F9F0C7
:1017F000CE0160E00E944C0B1AC0CE0161E00E9455
:10180000670B482F437E48600EC0CE0161E00E9406
:10181000670B482F437E446006C0CE0161E00E9402
:10182000670B482F437ECE0161E00E94300B809110
:10183000A503882331F4CE0167E20E94670B882359
:10184000B4F71093A503DF91CF911F910895CF9323
:10185000DF93EC018091A503833089F48091A90383
:10186000882369F4CE0160E00E94A20B865A9F4F44
:1018700034F4CE0161E00E94C00B81E001C080E041
:10188000DF91CF910895CF93DF93EC011092A603DF
:101890001092A7031092A8031092A9031092AA0312
:1018A0001092AB031092AD031092AC0368E20E9459
:1018B000670B82FF0AC0CE016DE30E94670B482FC1
:1018C0004460CE016DE30E94300BCE0165E240E43E
:1018D0000E94300BCE0163E00E94C00BDF91CF91DC
:1018E00008959C01F8948091A503833051F4809170
:1018F000A903882331F0C90161E00E94C00B81E097
:101900000895C9010E94430C80E008951F93162F8B
:101910000E94710C882361F08091A703811711F058
:10192000112331F48091AB03882319F081E001C0C9
:1019300080E01F9108950F931F93CF93DF93EC01E5
:101940008B0161E00E94C00B01151105E1F0CE0191
:101950000E94290B8EEB8EBD0DB407FEFDCF8EB518
:1019600020E030E0F801E20FF31F80818EBD0DB45E
:1019700007FEFDCF8EB52F5F3F4F2031310591F728
:10198000CE010E94220BCE016DE30E94670B482F0F
:101990004E7F80E0012B09F081E0482BCE016DE302
:1019A0000E94300BDF91CF911F910F910895CF933B
:1019B000DF93EC018091A503833009F067C0CE016D
:1019C00068E20E94670B82FF61C0CE0161E00E9465
:1019D000C00BCE010E94290B1EBC0DB407FEFDCF2B
:1019E0008EB51EBC0DB407FEFDCF8EB58093A90346
:1019F0008091A903833410F082E402C08091A9038E
:101A00008093A9031EBC0DB407FEFDCF8EB5809355
:101A1000A8038D81882309F042C09091A8038C818E
:101A20009817E9F18091A8038823C9F11092A903BE
:101A3000CE010E94220B3AC00DB407FEFDCF8EB539
:101A40008093A7031EBC0DB407FEFDCF8EB5982F63
:101A500090789093AB0380748093AA0390E00BC0BE
:101A60001EBC0DB407FEFDCF8EB5E92FF0E0E8599E
:101A7000FC4F80839F5F8091A603981788F3CE0167
:101A80000E94220BCE0163E00E94C00BCE0160E0F9
:101A90000E94A20B9093AD038093AC0307C080918A
:101AA000A90383508093A6031EBCC6CFDF91CF91BC
:101AB0000895CF92DF92EF92FF920F931F93CF93EF
:101AC000DF93EC01F62ED42EC52E122F61E00E947A
:101AD000C00BCE0167E20E94670B87FFFACFCE01F1
:101AE00065E240E00E94300B1E3308F01DE3CE019A
:101AF0000E94290B80E88EBD0DB407FEFDCF8EB588
:101B00001D5F1EBD13500DB407FEFDCF8EB5FEBC8C
:101B10000DB407FEFDCF8EB58C818EBD0DB407FED2
:101B2000FDCF8EB5EE2031F080E88EBD0DB407FEFE
:101B3000FDCF07C0002361F080E48EBD0DB407FE29
:101B4000FDCF8EB58D2D9C2D9C01F90190E00DC02F
:101B50001EBC0DB407FEFDCFF4CF80818EBD0DB449
:101B600007FEFDCF8EB59F5F31969117B0F3CE0182
:101B70000E94220BCE0164E00E94C00B8B810E9468
:101B8000F906892BD9F3CE0161E00E94C00BDF91E9
:101B9000CF911F910F91FF90EF90DF90CF9008951C
:101BA000EF92FF920F931F93CF93DF93EC018B0182
:101BB000F42EE090A70303C0CE010E94710CCE0169
:101BC0000E94270C8823C1F3CE016E2DA8012F2D72
:101BD00000E0EE24E3940E94590DDF91CF911F9114
:101BE0000F91FF90EF900895DF92EF92FF920F9385
:101BF0001F93CF93DF93EC01162F7A01D22E6DE362
:101C00000E94670B482F4460CE016DE30E94300BA9
:101C100003C0CE010E94710CCE010E94270C8823C4
:101C2000C1F3CE01612FA7012D2DEE240E94590D85
:101C3000DF91CF911F910F91FF90EF90DF9008956A
:101C40004F925F926F927F928F929F92AF92BF92CC
:101C5000CF92DF92EF92FF920F931F93CF93DF9378
:101C6000EC01862E3A01422E502E9924AE2CBB2434
:101C7000CC24DD24CE01682DA301242D01E00E9497
:101C8000F40D0E94C4057B018C0108C0CE01682DB3
:101C90000E94860C882311F081E00FC00E94C405C9
:101CA0006E197F09800B910B6A157B058C059D05CC
:101CB00068F393945914F0F680E0DF91CF911F916F
:101CC0000F91FF90EF90DF90CF90BF90AF909F90DB
:101CD0008F907F906F905F904F900895CF92DF929A
:101CE000EF92FF920F931F93DF93CF93CDB7DEB7A1
:101CF000AA970FB6F894DEBF0FBECDBF7C01042FAC
:101D0000522F6F3119F430EC4EE40EC06B3211F4E7
:101D10004CE6C2C0663509F0BBC049ED04C066356B
:101D200011F030EC01C030E0FE0131968AE2DF01B3
:101D30001D928A95E9F781E0898394E09A8382E095
:101D40008B8323E02D838E839F8390E4988785E0A7
:101D500089872A8786E08B8783E38C8787E08D8756
:101D600088E08F8789E0898B89E18B8B22E42C8B3B
:101D700085E28D8B9E8B89E28F8B8CED888F8EE236
:101D8000898F88E88A8F8FE28B8F8DE28C8F80E33A
:101D90008D8F87E38F8F80E988A388E389A32AA3A7
:101DA0008CE38BA38FE88CA38DE38DA382E18EA3BC
:101DB0008FE68FA380E288A78FEF89A74E87388BA5
:101DC0005E8FF701828161E00E94660680E00E94DA
:101DD000D40F81E00E94CB0F84E00E94D90F0E94B3
:101DE000EA0FC7016FE24AEA0E94300BC7016FE2B7
:101DF0000E94670B8A3AA9F7C7016FE245E50E9486
:101E0000300BC7016FE20E94670B8535A9F710E020
:101E10006E010894C11CD11C05C0C70141810E94FC
:101E2000300B1F5FE12FF0E0EE0FFF1FEC0DFD1DEB
:101E300060816F3F91F7C701D70117966C910E949F
:101E4000810BC70161E00E94C00BC70167E20E94DD
:101E5000670B87FFFACF80E066E17BE043E050E06C
:101E60000E944E0FF092AF03E092AE03F70104839D
:101E700081E0AA960FB6F894DEBF0FBECDBFCF911A
:101E8000DF911F910F91FF90EF90DF90CF90089519
:101E900044EE6B3209F043CF30E446CF823000F598
:101EA000E82FF0E0EE0FFF1FE055FC4F71836083D9
:101EB000882319F08130A1F408C0809169008C7FDB
:101EC000842B80936900E89A089580916900440FFB
:101ED000551F440F551F837F842B80936900E99A17
:101EE00008951F920F920FB60F9211242F933F93D4
:101EF0004F935F936F937F938F939F93AF93BF9312
:101F0000EF93FF938091B0039091B103892B29F057
:101F1000E091B003F091B1030995FF91EF91BF916A
:101F2000AF919F918F917F916F915F914F913F9171
:101F30002F910F900FBE0F901F9018951F920F9228
:101F40000FB60F9211242F933F934F935F936F938C
:101F50007F938F939F93AF93BF93EF93FF93809162
:101F6000B2039091B303892B29F0E091B203F09171
:101F7000B3030995FF91EF91BF91AF919F918F911D
:101F80007F916F915F914F913F912F910F900FBE75
:101F90000F901F901895882319F48CB5806202C0A9
:101FA0008CB58F7D8CBD08959CB5937F982B9CBD7F
:101FB00008952CB5382F33702C7F322B3CBD2DB5B6
:101FC00090E0959587959595879581702E7F822BCA
:101FD0008DBD08958AE061E00E94A5068AE061E077
:101FE0000E9466068CB580618CBD8CB580648CBD0A
:101FF0008DE061E00E9466068BE061E00E9466066B
:102000000895629FD001739FF001829FE00DF11D42
:10201000649FE00DF11D929FF00D839FF00D749F62
:10202000F00D659FF00D9927729FB00DE11DF91F0E
:10203000639FB00DE11DF91FBD01CF01112408956B
:10204000A1E21A2EAA1BBB1BFD010DC0AA1FBB1FBC
:10205000EE1FFF1FA217B307E407F50720F0A21B2E
:10206000B30BE40BF50B661F771F881F991F1A949B
:1020700069F760957095809590959B01AC01BD01C5
:10208000CF0108952F923F924F925F926F927F926D
:102090008F929F92AF92BF92CF92DF92EF92FF9278
:1020A0000F931F93CF93DF93CDB7DEB7CA1BDB0B24
:1020B0000FB6F894DEBF0FBECDBF09942A883988C9
:1020C00048885F846E847D848C849B84AA84B984D0
:1020D000C884DF80EE80FD800C811B81AA81B981DC
:1020E000CE0FD11D0FB6F894DEBF0FBECDBFED01F0
:1020F0000895EE0FFF1F0590F491E02D0994F894D8
:02210000FFCF0F
:10210200207A6F6E654E756D626572203D002064A7
:10211200617461446972656374696F6E203D002069
:102122007A6F6E655374617465203D0020746F741C
:10213200616C537072696E6B6C6554696D65203D9C
:102142000020616374697665537072696E6B6C65A9
:1021520054696D65203D002070657263656E74433D
:102162006F6D706C657465203D00207061757365DC
:1021720054696D65203D000A476574205A6F6E658B
:1021820020537461747573203A3A2000206F6B21DA
:1021920000206E6F7468696E672E2E2E005D20001F
:1021A2002020205B52585F525353493A005D000091
:1021B200202D2041434B2073656E74000A2D2D2D76
:1021C2002050726F63657373205A6F6E652073744B
:1021D2006174757320726573706F6E73652E2E2E27
:1021E200200A00204D6574686F64206973206E6F49
:1021F2007420737570706F72746564202E2E2E2099
:1022020000204E6F2046756E6374696F6E206465A0
:1022120066696E65642E2E2E200053656E64696EAB
:102222006720737472756374202800206279746564
:102232007329202E2E2E2000746869734973456E0F
:1022420063727970744B6579000A5472616E736DB2
:10225200697474696E67206174202564204D687A00
:102262002E2E2E00FFFFFFFF00000000800A5B07FA
:0E227200160A470A270A700A00000000D70C5F
:00000001FF
