:100000000C9463000C94650E0C94920E0C948B006F
:100010000C948B000C948B000C948B000C948B0034
:100020000C948B000C948B000C948B000C948B0024
:100030000C948B000C948B000C948B000C948B0014
:100040000C94AD040C948B000C94FA070C944808A3
:100050000C948B000C948B000C948B000C948B00F4
:100060000C948B000C948B000000000024002700EF
:100070002A0000000000250028002B0000000000DE
:1000800023002600290004040404040404040202DA
:100090000202020203030303030301020408102007
:1000A0004080010204081020010204081020000012
:1000B0000007000201000003040600000000000029
:1000C00000002E03B40911241FBECFEFD8E0DEBF1D
:1000D000CDBF11E0A0E0B1E0EAEEFEE102C0059084
:1000E0000D92A439B107D9F712E0A4E9B1E001C03B
:1000F0001D92A43CB107E1F710E0C6ECD0E004C0CB
:100100002297FE010E946F0FC23CD107C9F70E94DF
:100110007D060C94730F0C940000AEE0B0E0E3E9B0
:10012000F0E00C94440F0D891E8986E08C831A83BD
:1001300009838FEF9FE79E838D839E01275E3F4F4C
:10014000CE0101966F89788DA9010E94B1002F819F
:100150003885020F131FF80110822E96E4E00C94EC
:10016000600FABE0B0E0E7EBF0E00C94360F3C0141
:100170002B015A01FC0117821682838181FD03C085
:100180006FEF7FEFC6C19AE0892E1E010894211CF3
:10019000311CF3012381F20123FD859123FF81911D
:1001A0002F01882309F4B2C1853239F423FD8591EA
:1001B00023FF81912F01853229F490E0B3010E9441
:1001C000A402E7CF982FFF24EE249924FFE1FF1526
:1001D000D0F09B3269F09C3228F4903259F093327F
:1001E00091F40EC09D3249F0903369F441E024C08F
:1001F00052E0F52A84E0F82A28C098E0F92A25C0C0
:10020000E0E1FE2A22C0F7FC29C0892F80538A3002
:1002100070F4F6FE05C0989C902C1124980E15C021
:10022000E89CE02C1124E80EF0E2FF2A0EC09E327A
:1002300029F4F6FC6BC140E4F42A07C09C3619F49B
:1002400050E8F52A02C0983649F4F20123FD959151
:1002500023FF91912F01992309F0B8CF892F85545D
:10026000833018F08052833038F444E050E0A40E1C
:10027000B51E5FE359830FC0933631F0933779F0A1
:10028000933509F056C020C0F5018081898342E092
:1002900050E0A40EB51E610101E010E012C0F501AE
:1002A000C080D180F6FC03C06FEF7FEF02C0692DE4
:1002B00070E042E050E0A40EB51EC6010E94990213
:1002C0008C015FE7F52214C0F501C080D180F6FCF7
:1002D00003C06FEF7FEF02C0692D70E042E050E095
:1002E000A40EB51EC6010E948E028C0150E8F52AAC
:1002F000F3FE07C01AC080E290E0B3010E94A4029E
:10030000EA948E2D90E008171907A8F30EC0F601A5
:10031000F7FC8591F7FE81916F0190E0B3010E9497
:10032000A402E110EA94015010400115110579F77B
:10033000EAC0943611F0993669F5F7FE08C0F50168
:10034000208131814281538184E090E00AC0F5012F
:10035000808191819C01442737FD4095542F82E094
:1003600090E0A80EB91E9FE6F92257FF09C05095EC
:100370004095309521953F4F4F4F5F4FE0E8FE2A63
:10038000CA01B901A1012AE030E00E94D002D82EB2
:10039000D21840C0953729F41F2D1F7E2AE030E087
:1003A0001DC01F2D197F9F3661F0903720F49835BE
:1003B00009F0ACC00FC0903739F0983709F0A6C0EB
:1003C00004C028E030E00AC0106114FD146020E190
:1003D00030E004C014FD166020E132E017FF08C0D1
:1003E000F501608171818281938144E050E008C011
:1003F000F50180819181BC0180E090E042E050E015
:10040000A40EB51EA1010E94D002D82ED2188FE7EB
:10041000F82EF122F6FE0BC05EEFF522D91438F467
:10042000F4FE07C0F2FC05C08FEEF82202C01D2DBD
:1004300001C0192DF4FE0DC0FE01ED0DF11D8081EE
:10044000803319F499EEF92208C01F5FF2FE05C04F
:1004500003C08F2D867809F01F5F0F2DF3FC14C0A9
:10046000F0FE0FC01E1510F09D2C0BC09D2C9E0C95
:10047000911A1E2D06C080E290E0B3010E94A402F2
:100480001F5F1E15C0F304C01E1510F4E11A01C051
:10049000EE2404FF0FC080E390E0B3010E94A402A9
:1004A00002FF1DC001FD03C088E790E00EC088E593
:1004B00090E00BC0802F867891F001FF02C08BE2A4
:1004C00001C080E2F7FC8DE290E0B3010E94A4023B
:1004D00006C080E390E0B3010E94A4029A94D9146C
:1004E000C0F3DA94F101ED0DF11D808190E0B301CC
:1004F0000E94A402DD20A9F706C080E290E0B301CB
:100500000E94A402EA94EE20C1F743CEF301668173
:100510007781CB012B96E2E10C94520FFC01059000
:10052000615070400110D8F7809590958E0F9F1FF5
:100530000895FC016150704001900110D8F780953A
:1005400090958E0F9F1F08950F931F93CF93DF9366
:100550008C01EB018B8181FF1BC082FF0DC02E81BE
:100560003F818C819D812817390764F4E881F981E6
:100570000193F983E88306C0E885F985802F099502
:10058000892B31F48E819F8101969F838E8302C0D7
:100590000FEF1FEFC801DF91CF911F910F910895C9
:1005A000FA01AA27283051F1203181F1E8946F93A4
:1005B0006E7F6E5F7F4F8F4F9F4FAF4FB1E03ED04A
:1005C000B4E03CD0670F781F891F9A1FA11D680FE8
:1005D000791F8A1F911DA11D6A0F711D811D911D1B
:1005E000A11D20D009F468943F912AE0269F112490
:1005F0003019305D3193DEF6CF010895462F4770F4
:10060000405D4193B3E00FD0C9F7F6CF462F4F704E
:10061000405D4A3318F0495D31FD4052419302D0AC
:10062000A9F7EACFB4E0A695979587957795679552
:10063000BA95C9F700976105710508959B01AC0152
:100640000A2E06945795479537952795BA95C9F779
:10065000620F731F841F951FA01D089582E991E00A
:100660009093BE018093BD018AE08093BF0182E038
:100670008093C00181E08093B5021092C2018FE1A6
:100680008093C3011092C4010895DF92EF92FF920C
:100690000F931F93D82E7B0161E00E9497058D2D4B
:1006A00061E00E94D6050027F7FC0095102FC801D5
:1006B000B7010E9403058D2D60E00E94D6051F91B1
:1006C0000F91FF90EF90DF900895AF92BF92CF927D
:1006D000DF92EF920F938DEB91E00E94650B8823E0
:1006E00009F45BC086E592E06BE50E94B606609176
:1006F000B70286E592E04AE050E00E947E0786E578
:1007000092E060E071E00E94E30700E00AC0E02FA1
:10071000F0E0E858FD4F608186E592E00E94B60661
:100720000F5F8091B602081790F386E592E063E0D0
:1007300071E00E94E3078DEB91E060E00E94960A71
:10074000BC0186E592E04AE050E00E94D00786E5D1
:1007500092E060E171E00E94E3078091BA02882391
:1007600099F08DEB91E062E171E040E00E94C40CF1
:1007700086E592E063E171E00E94E3076AE070E0E1
:1007800080E090E00E94030589E065E070E00E944F
:10079000450386E592E00E94BE060E94F50420E330
:1007A00035E740E050E00E94140F5901CC24B7FC1B
:1007B000C094DC2C80917A0190917B01A0917C0106
:1007C000B0917D01A816B906CA06DB0609F466C019
:1007D0000E94F504609395017093960180939701B0
:1007E0009093980181E08093940189E08093B9010E
:1007F00083E18093BA018DE18093BB0187E280930E
:10080000BC018091B9019091BA01A091BB01B09156
:10081000BC018093990190939A01A0939B01B0939E
:100820009C0186E592E06FE171E00E94E30786E5B6
:1008300092E065E270E04AE050E00E946D0786E5D4
:1008400092E060E371E00E94E3078DEB91E06AE2E1
:1008500044E951E025E202E03FE0E32E0E94140D5E
:10086000882329F086E592E06DE371E004C086E517
:1008700092E062E471E00E94E30786E592E00E9464
:10088000BE0689E063E070E00E944503A0927A0111
:10089000B0927B01C0927C01D0927D010F91EF90CC
:1008A000DF90CF90BF90AF900895EF92FF920F939B
:1008B0001F93DF93CF93CDB7DEB7E2970FB6F894CF
:1008C000DEBF0FBECDBF46E5E42E42E0F42EC701E9
:1008D00040E052EC61E070E00E9483080DEB11E013
:1008E000C8016BE543E624E60E94620DC8016EE490
:1008F00071E00E948F0B00D000D000D0EDB7FEB7A2
:1009000031968E010F5F1F4FADB7BEB712961C9385
:100910000E9311978FE591E09383828383E993E0AF
:10092000958384830E948D008DB79EB706960FB67F
:10093000F8949EBF0FBE8DBFC701B8010E94E607A5
:10094000E2960FB6F894DEBF0FBECDBFCF91DF9118
:100950001F910F91FF90EF9008951F920F920FB685
:100960000F9211242F933F938F939F93AF93BF9335
:100970008091C9019091CA01A091CB01B091CC01A5
:100980003091CD010196A11DB11D232F2D5F2D3773
:1009900020F02D570196A11DB11D2093CD0180930C
:1009A000C9019093CA01A093CB01B093CC0180916F
:1009B000C5019091C601A091C701B091C8010196EF
:1009C000A11DB11D8093C5019093C601A093C701DD
:1009D000B093C801BF91AF919F918F913F912F919B
:1009E0000F900FBE0F901F9018958FB7F89420911D
:1009F000C9013091CA014091CB015091CC018FBF08
:100A0000B901CA0108959B01AC017FB7F8948091A8
:100A1000C5019091C601A091C701B091C80166B50A
:100A2000A89B05C06F3F19F00196A11DB11D7FBFA6
:100A3000BA2FA92F982F8827860F911DA11DB11DB0
:100A400062E0880F991FAA1FBB1F6A95D1F7BC01EE
:100A50002DC0FFB7F8948091C5019091C601A09177
:100A6000C701B091C801E6B5A89B05C0EF3F19F0DA
:100A70000196A11DB11DFFBFBA2FA92F982F88275E
:100A80008E0F911DA11DB11DE2E0880F991FAA1FB5
:100A9000BB1FEA95D1F7861B970B885E9340C8F27F
:100AA000215030404040504068517C4F2115310565
:100AB0004105510571F60895789484B5826084BD2E
:100AC00084B5816084BD85B5826085BD85B5816052
:100AD00085BDEEE6F0E0808181608083E1E8F0E0B2
:100AE0001082808182608083808181608083E0E8E1
:100AF000F0E0808181608083E1EBF0E080818460C0
:100B00008083E0EBF0E0808181608083EAE7F0E0C1
:100B10008081846080838081826080838081816025
:100B200080838081806880831092C1000895CF9374
:100B3000DF93482F50E0CA0186569F4FFC01349145
:100B40004A575F4FFA018491882369F190E0880F3A
:100B5000991FFC01E859FF4FA591B491FC01EE5893
:100B6000FF4FC591D491662351F42FB7F8948C911F
:100B7000932F909589238C93888189230BC06230B1
:100B800061F42FB7F8948C91932F909589238C93CF
:100B90008881832B88832FBF06C09FB7F8948C91E0
:100BA000832B8C939FBFDF91CF910895482F50E006
:100BB000CA0182559F4FFC012491CA0186569F4F5E
:100BC000FC0194914A575F4FFA013491332309F4A1
:100BD00040C0222351F1233071F0243028F4213019
:100BE000A1F0223011F514C02630B1F02730C1F049
:100BF0002430D9F404C0809180008F7703C08091A5
:100C000080008F7D8093800010C084B58F7702C0F4
:100C100084B58F7D84BD09C08091B0008F7703C0FB
:100C20008091B0008F7D8093B000E32FF0E0EE0F55
:100C3000FF1FEE58FF4FA591B4912FB7F89466238C
:100C400021F48C919095892302C08C91892B8C93EF
:100C50002FBF0895682F70E0CB0182559F4FFC0194
:100C60002491CB0186569F4FFC0144916A577F4FD8
:100C7000FB019491992319F420E030E03CC0222339
:100C800051F1233071F0243028F42130A1F02230CA
:100C900011F514C02630B1F02730C1F02430D9F45A
:100CA00004C0809180008F7703C0809180008F7D89
:100CB0008093800010C084B58F7702C084B58F7D8B
:100CC00084BD09C08091B0008F7703C08091B000CF
:100CD0008F7D8093B000892F90E0880F991F8458F2
:100CE0009F4FFC01A591B4918C9120E030E08423CA
:100CF00011F021E030E0C9010895CF93DF930E9405
:100D00005C050E945504C5E3D8E00E946503209766
:100D1000E1F30E943508F9CFCF92DF92EF92FF9274
:100D20000F931F93CF93DF937C016B018A01C0E087
:100D3000D0E00FC0D6016D916D01D701ED91FC910E
:100D40000190F081E02DC7010995C80FD91F01500E
:100D500010400115110571F7CE01DF91CF911F9160
:100D60000F91FF90EF90DF90CF900895DC01ED910F
:100D7000FC910190F081E02D09950895EF92FF928A
:100D80000F931F938C01DC01ED91FC910190F08198
:100D9000E02D6DE009957C01D801ED91FC91019069
:100DA000F081E02DC8016AE009959C012E0D3F1DE0
:100DB000C9011F910F91FF90EF900895CF93DF939A
:100DC000EC016115710519F420E030E00FC0DB0182
:100DD0000D900020E9F71197A61BB70BE881F98168
:100DE0000280F381E02DAD0109959C01C901DF91DD
:100DF000CF9108954F925F927F928F929F92AF9280
:100E0000BF92CF92DF92EF92FF920F931F93DF93E7
:100E1000CF93CDB7DEB7A1970FB6F894DEBF0FBE64
:100E2000CDBF2C01742ECB01223008F42AE019A288
:100E300031E2C32ED12CCC0EDD1E822E9924AA24A1
:100E4000BB24672D752FA50194010E94140F790111
:100E50008A01C801B701A50194010E94F50E472D32
:100E6000461B0894C108D1084A3014F4405D01C003
:100E7000495CF6014083E114F1040105110521F0FC
:100E80007E2C5F2DC801DDCFC201B6010E94DE06B7
:100E9000A1960FB6F894DEBF0FBECDBFCF91DF9104
:100EA0001F910F91FF90EF90DF90CF90BF90AF9088
:100EB0009F908F907F905F904F900895DC01211557
:100EC000310541F4ED91FC910190F081E02D642F0A
:100ED000099508950E94FA060895EF92FF920F93E4
:100EE0001F939A017B0100E010E0B801A7010E9466
:100EF0005E071F910F91FF90EF900895EF92FF9280
:100F00000F931F939A01E62EFF2400E010E0B80132
:100F1000A7010E945E071F910F91FF90EF90089527
:100F2000CF92DF92EF92FF920F931F93CF93DF93B5
:100F3000EC016A017B012115310541F4E881F98159
:100F40000190F081E02D642F09951FC02A303105F2
:100F5000D1F477FF17C0E881F9810190F081E02D8D
:100F60006DE209958C0144275527BA014C195D099A
:100F70006E097F09CE012AE00E94FA069801280F27
:100F8000391F04C02AE00E94FA069C01C901DF91C2
:100F9000CF911F910F91FF90EF90DF90CF90089528
:100FA000EF92FF920F931F937B019A010027F7FCAA
:100FB0000095102FB801A7010E9490071F910F9173
:100FC000FF90EF9008950E94DE060895EF92FF9241
:100FD0000F931F937C010E94DE068C01C7010E94C3
:100FE000BE06080F191FC8011F910F91FF90EF90C7
:100FF000089508951F920F920FB60F9211242F9308
:101000003F934F938F939F93EF93FF938091C000F3
:1010100082FD1DC04091C60020910E0230910F024A
:101020002F5F3F4F2F73307080911002909111020B
:101030002817390771F0E0910E02F0910F02E25388
:10104000FE4F408330930F0220930E0202C0809126
:10105000C600FF91EF919F918F914F913F912F91FA
:101060000F900FBE0F901F901895E0916202F091C3
:101070006302E05CFF4F8191919120813181821B5D
:10108000930B8F739070892B11F00E94F9070895CC
:101090001F920F920FB60F9211242F933F938F93AD
:1010A0009F93EF93FF9320915202309153028091CE
:1010B0005402909155022817390731F48091C100EC
:1010C0008F7D8093C10014C0E0915402F0915502CD
:1010D000EE5EFD4F20818091540290915502019661
:1010E0008F73907090935502809354022093C600A2
:1010F000FF91EF919F918F913F912F910F900FBE94
:101100000F901F901895AF92BF92DF92EF92FF92CF
:101110000F931F93CF93DF93EC017A018B01DD24B2
:10112000403081EE580780E0680780E0780711F0D2
:10113000DD24D39491E0A92EB12CEC89FD89DD202A
:1011400069F0C50108A002C0880F991F0A94E2F750
:10115000808360E079E08DE390E005C0108260E874
:1011600074E88EE190E0A80197010E94140F2150CD
:10117000304040405040569547953795279580E13F
:101180002030380720F0DD2011F0DD24D6CFE889AB
:10119000F9893083EA89FB89208319A2EE89FF89C6
:1011A000408121E030E0C9010C8C02C0880F991FFA
:1011B0000A94E2F7482B4083EE89FF894081C901F8
:1011C0000D8C02C0880F991F0A94E2F7482B4083C8
:1011D000EE89FF894081C9010E8C02C0880F991FDA
:1011E0000A94E2F7482B4083EE89FF8980810F8CB7
:1011F00002C0220F331F0A94E2F720952823208390
:10120000DF91CF911F910F91FF90EF90DF90BF90F2
:10121000AF900895DC011C96ED91FC911D97E05C68
:10122000FF4F2191319180819181281B390B2F73C0
:101230003070C9010895DC011C96ED91FC911D9759
:10124000E05CFF4F20813181E054F040DF01AE5B74
:10125000BF4F8D919C9111972817390719F42FEFE3
:101260003FEF07C08D919C91E80FF91F8081282FD7
:1012700030E0C9010895DC011C96ED91FC911D97A9
:10128000E05CFF4F20813181E054F040DF01AE5B34
:10129000BF4F8D919C9111972817390719F42FEFA3
:1012A0003FEF10C08D919C911197E80FF91F20819D
:1012B0008D919C91119701968F73907011969C93CC
:1012C0008E9330E0C9010895DC0191968C9191973D
:1012D000882339F05496ED91FC915597808186FFD3
:1012E000F9CF91961C920895CF93DF93EC01EE8590
:1012F000FF85E05CFF4F20813181E054F0402F5F9B
:101300003F4F2F733070DF01AE5BBF4F8D919C91CB
:10131000119728173907D1F3E05CFF4F8081918145
:10132000E054F040E80FF91F6083EE85FF85E05C34
:10133000FF4F31832083EE89FF89208181E090E097
:101340000F8C02C0880F991F0A94E2F7282B208384
:1013500081E089A3EC89FD8980818064808381E0BC
:1013600090E0DF91CF9108951092590210925802A7
:1013700088EE93E0A0E0B0E080935A0290935B0285
:10138000A0935C02B0935D0282E891E090935702D3
:10139000809356028EEC91E09093630280936202F8
:1013A00082E192E0909365028093640285EC90E084
:1013B000909367028093660284EC90E090936902B8
:1013C0008093680280EC90E090936B0280936A02B5
:1013D00081EC90E090936D0280936C0282EC90E03F
:1013E00090936F0280936E0286EC90E0909371026E
:1013F0008093700284E08093720283E08093730292
:1014000087E08093740285E08093750281E0809389
:1014100076020895E091BE02F091BF02A081B181F1
:101420002D913C91CF01F90109950895FC0182812C
:1014300061E00E94D60578940895FC01F8948281B9
:1014400060E00E94D60508950F931F93CF93DF931A
:10145000EC01162F042F0E941D0A10681EBD0DB44A
:1014600007FEFDCF8EB50EBD0DB407FEFDCF8EB5C8
:10147000CE010E94160ADF91CF911F910F9108951E
:101480001F93CF93DF93EC01162F662311F445E5EC
:1014900001C04DE5CE016AE50E94240A112311F432
:1014A00040E701C04CE7CE016CE50E94240ADF91C1
:1014B000CF911F9108951F93CF93DF93EC01162FC7
:1014C0000E941D0A1F771EBD0DB407FEFDCF8EB50D
:1014D0001EBC0DB407FEFDCF1EB5CE010E94160A3C
:1014E000812FDF91CF911F910895CF93DF93EC016E
:1014F0006F83662311F44AE101C04FE0CE0163E13E
:101500000E94240A8F81882341F0CE0161E10E946C
:101510005B0A482F4F71406602C04E814068CE0181
:1015200061E10E94240ADF91CF910895CF93DF9368
:10153000EC01662351F063E241E00E94240ACE01EF
:1015400063E20E945B0A81FFFACFCE0164E20E944F
:101550005B0A282F30E0309521953F4F3595279530
:10156000C901DF91CF9108951F93CF93DF93EC01D1
:10157000162F8091B502681709F459C0623089F1BD
:10158000633030F46623E9F1613009F050C031C0B6
:101590006330A1F0643009F04AC0CE0161E00E94DE
:1015A0005B0A482F437E4C60CE0161E00E94240A12
:1015B0008F81882381F1CE0161E010C0CE0161E00E
:1015C0000E945B0A482F437E4061CE0161E00E9489
:1015D000240A8F818823F9F0CE0160E00E94400A3E
:1015E0001AC0CE0161E00E945B0A482F437E48602A
:1015F0000EC0CE0161E00E945B0A482F437E44602A
:1016000006C0CE0161E00E945B0A482F437ECE01F6
:1016100061E00E94240A8091B502882331F4CE0152
:1016200067E20E945B0A8823B4F71093B502DF914A
:10163000CF911F910895CF93DF93EC018091B50274
:10164000833089F48091B902882369F4CE0160E087
:101650000E94960A865A9F4F34F4CE0161E00E94A0
:10166000B40A81E001C080E0DF91CF910895CF936B
:10167000DF93EC011092B6021092B7021092B802FA
:101680001092B9021092BA021092BB021092BD02DF
:101690001092BC0268E20E945B0A82FF0AC0CE017F
:1016A0006DE30E945B0A482F4460CE016DE30E9407
:1016B000240ACE0165E240E40E94240ACE0163E0E0
:1016C0000E94B40ADF91CF9108959C01F894809113
:1016D000B502833051F48091B902882331F0C901F9
:1016E00061E00E94B40A81E00895C9010E94370BAD
:1016F00080E008951F93162F0E94650B882361F0E8
:101700008091B702811711F0112331F48091BB024F
:10171000882319F081E001C080E01F9108950F93A4
:101720001F93CF93DF93EC018B0161E00E94B40A19
:1017300001151105E1F0CE010E941D0A8EEB8EBD50
:101740000DB407FEFDCF8EB520E030E0F801E20FCA
:10175000F31F80818EBD0DB407FEFDCF8EB52F5FC8
:101760003F4F2031310591F7CE010E94160ACE017C
:101770006DE30E945B0A482F4E7F80E0012B09F049
:1017800081E0482BCE016DE30E94240ADF91CF91C6
:101790001F910F910895CF93DF93EC018091B502D3
:1017A000833009F067C0CE0168E20E945B0A82FFC5
:1017B00061C0CE0161E00E94B40ACE010E941D0A00
:1017C0001EBC0DB407FEFDCF8EB51EBC0DB407FECA
:1017D000FDCF8EB58093B9028091B902833410F0A9
:1017E00082E402C08091B9028093B9021EBC0DB49C
:1017F00007FEFDCF8EB58093B8028D81882309F056
:1018000042C09091B8028C819817E9F18091B8029A
:101810008823C9F11092B902CE010E94160A3AC07B
:101820000DB407FEFDCF8EB58093B7021EBC0DB47C
:1018300007FEFDCF8EB5982F90789093BB028074F1
:101840008093BA0290E00BC01EBC0DB407FEFDCF22
:101850008EB5E92FF0E0E858FD4F80839F5F8091BF
:10186000B602981788F3CE010E94160ACE0163E0F3
:101870000E94B40ACE0160E00E94960A9093BD02D5
:101880008093BC0207C08091B90283508093B60256
:101890001EBCC6CFDF91CF910895CF92DF92EF9219
:1018A000FF920F931F93CF93DF93EC01F62ED42E6C
:1018B000C52E122F61E00E94B40ACE0167E20E9499
:1018C0005B0A87FFFACFCE0165E240E00E94240A5E
:1018D0001E3308F01DE3CE010E941D0A80E88EBD74
:1018E0000DB407FEFDCF8EB51D5F1EBD13500DB4A8
:1018F00007FEFDCF8EB5FEBC0DB407FEFDCF8EB545
:101900008C818EBD0DB407FEFDCF8EB5EE2031F07B
:1019100080E88EBD0DB407FEFDCF07C0002361F047
:1019200080E48EBD0DB407FEFDCF8EB58D2D9C2DB0
:101930009C01F90190E00DC01EBC0DB407FEFDCF67
:10194000F4CF80818EBD0DB407FEFDCF8EB59F5FB5
:1019500031969117B0F3CE010E94160ACE0164E0D1
:101960000E94B40A8B810E942A06892BD9F3CE01EA
:1019700061E00E94B40ADF91CF911F910F91FF9017
:10198000EF90DF90CF900895EF92FF920F931F9307
:10199000CF93DF93EC018B01F42EE090B70203C0EC
:1019A000CE010E94650BCE010E941B0B8823C1F360
:1019B000CE016E2DA8012F2D00E0EE24E3940E94AD
:1019C0004D0CDF91CF911F910F91FF90EF900895F3
:1019D000DF92EF92FF920F931F93CF93DF93EC016F
:1019E000162F7A01D22E6DE30E945B0A482F4460C5
:1019F000CE016DE30E94240A03C0CE010E94650B54
:101A0000CE010E941B0B8823C1F3CE01612FA701D9
:101A10002D2DEE240E944D0CDF91CF911F910F913F
:101A2000FF90EF90DF9008954F925F926F927F92B8
:101A30008F929F92AF92BF92CF92DF92EF92FF92DE
:101A40000F931F93CF93DF93EC01862E3A01422E22
:101A5000502E9924AE2CBB24CC24DD24CE01682D3D
:101A6000A301242D01E00E94E80C0E94F5047B01F3
:101A70008C0108C0CE01682D0E947A0B882311F0DA
:101A800081E00FC00E94F5046E197F09800B910B55
:101A90006A157B058C059D0568F393945914F0F63F
:101AA00080E0DF91CF911F910F91FF90EF90DF9039
:101AB000CF90BF90AF909F908F907F906F905F90EE
:101AC0004F900895CF92DF92EF92FF920F931F9362
:101AD000DF93CF93CDB7DEB7AA970FB6F894DEBFEA
:101AE0000FBECDBF7C01042F522F6F3119F430ECA3
:101AF0004EE40EC06B3211F44CE6C2C0663509F0FC
:101B0000BBC049ED04C0663511F030EC01C030E0D7
:101B1000FE0131968AE2DF011D928A95E9F781E0A4
:101B2000898394E09A8382E08B8323E02D838E83E4
:101B30009F8390E4988785E089872A8786E08B8752
:101B400083E38C8787E08D8788E08F8789E0898BA6
:101B500089E18B8B22E42C8B85E28D8B9E8B89E235
:101B60008F8B8CED888F8EE2898F88E88A8F8FE249
:101B70008B8F8DE28C8F80E38D8F87E38F8F80E951
:101B800088A388E389A32AA38CE38BA38FE88CA383
:101B90008DE38DA382E18EA38FE68FA380E288A7D9
:101BA0008FEF89A74E87388B5E8FF701828161E0C6
:101BB0000E94970580E00E94C80E81E00E94BF0E3F
:101BC00084E00E94CD0E0E94DE0EC7016FE24AEA59
:101BD0000E94240AC7016FE20E945B0A8A3AA9F7B1
:101BE000C7016FE245E50E94240AC7016FE20E9427
:101BF0005B0A8535A9F710E06E010894C11CD11C61
:101C000005C0C70141810E94240A1F5FE12FF0E057
:101C1000EE0FFF1FEC0DFD1D60816F3F91F7C701B7
:101C2000D70117966C910E94750AC70161E00E9466
:101C3000B40AC70167E20E945B0A87FFFACF80E01F
:101C40006AE07AE043E050E00E94420EF092BF0268
:101C5000E092BE02F701048381E0AA960FB6F894E1
:101C6000DEBF0FBECDBFCF91DF911F910F91FF90CF
:101C7000EF90DF90CF90089544EE6B3209F043CFA0
:101C800030E446CF823000F5E82FF0E0EE0FFF1F82
:101C9000E054FD4F71836083882319F08130A1F4F3
:101CA00008C0809169008C7F842B80936900E89A3A
:101CB000089580916900440F551F440F551F837F7D
:101CC000842B80936900E99A08951F920F920FB6B2
:101CD0000F9211242F933F934F935F936F937F93B2
:101CE0008F939F93AF93BF93EF93FF938091C00225
:101CF0009091C102892B29F0E091C002F091C102BC
:101D00000995FF91EF91BF91AF919F918F917F9135
:101D10006F915F914F913F912F910F900FBE0F9058
:101D20001F9018951F920F920FB60F9211242F93A8
:101D30003F934F935F936F937F938F939F93AF9353
:101D4000BF93EF93FF938091C2029091C302892BBE
:101D500029F0E091C202F091C3020995FF91EF9141
:101D6000BF91AF919F918F917F916F915F914F91B3
:101D70003F912F910F900FBE0F901F9018958823C1
:101D800019F48CB5806202C08CB58F7D8CBD08952E
:101D90009CB5937F982B9CBD08952CB5382F33703C
:101DA0002C7F322B3CBD2DB590E095958795959570
:101DB000879581702E7F822B8DBD08958AE061E02A
:101DC0000E94D6058AE061E00E9497058CB580618B
:101DD0008CBD8CB580648CBD8DE061E00E94970560
:101DE0008BE061E00E9497050895629FD001739F88
:101DF000F001829FE00DF11D649FE00DF11D929FA7
:101E0000F00D839FF00D749FF00D659FF00D9927E5
:101E1000729FB00DE11DF91F639FB00DE11DF91F09
:101E2000BD01CF0111240895A1E21A2EAA1BBB1BEC
:101E3000FD010DC0AA1FBB1FEE1FFF1FA217B30796
:101E4000E407F50720F0A21BB30BE40BF50B661FAC
:101E5000771F881F991F1A9469F760957095809570
:101E600090959B01AC01BD01CF0108952F923F9247
:101E70004F925F926F927F928F929F92AF92BF929A
:101E8000CF92DF92EF92FF920F931F93CF93DF9346
:101E9000CDB7DEB7CA1BDB0B0FB6F894DEBF0FBEA3
:101EA000CDBF09942A88398848885F846E847D84F0
:101EB0008C849B84AA84B984C884DF80EE80FD80F2
:101EC0000C811B81AA81B981CE0FD11D0FB6F89468
:101ED000DEBF0FBECDBFED010895EE0FFF1F0590D1
:0A1EE000F491E02D0994F894FFCF6F
:101EEA005D20002020205B52585F525353493A002C
:101EFA005D0000202D2041434B2073656E74005312
:101F0A00656E64696E672073747275637420280045
:101F1A0020627974657329202E2E2E2000206F6B83
:101F2A002100206E6F7468696E672E2E2E00746809
:101F3A0069734973456E63727970744B6579000AE7
:101F4A005472616E736D697474696E67206174206E
:101F5A002564204D687A2E2E2E00FFFFFFFF000019
:101F6A00000074098C060A093B091B096409000070
:041F7A000000CB0B8D
:00000001FF
